:020000040800F2
:10000000300A002031530008C92100083B53000882
:10001000CB210008CF210008D321000800000000F8
:10002000000000000000000000000000D7210008D0
:10003000D92100080000000047530008DB21000818
:100040004B5300084B5300084B5300084B53000818
:100050004B5300084B5300084B5300084B53000808
:100060004B5300084B5300084B5300084B530008F8
:100070004B5300084B5300084B5300084B530008E8
:100080004B5300084B5300084B5300084B530008D8
:100090004B5300084B5300084B5300084B530008C8
:1000A0004B5300084B5300084B5300084B530008B8
:1000B0004B5300084B5300084B5300084B530008A8
:1000C0004B5300084B5300084B5300084B53000898
:1000D0004B530008E32100084B5300084B53000822
:1000E0004B5300084B5300084B53000800F002F834
:1000F00000F03CF80AA090E8000C82448344AAF186
:100100000107DA4501D100F031F8AFF2090EBAE883
:100110000F0013F0010F18BFFB1A43F0010318473B
:100120001070000030700000103A24BF78C878C109
:10013000FAD8520724BF30C830C144BF04680C60ED
:10014000704700000023002400250026103A28BF35
:1001500078C1FBD8520728BF30C148BF0B60704739
:100160001FB505F08FFA1FBD10B510BD05F0B0FA30
:100170001146FFF7F5FF00F009F805F0CEFA03B4D9
:10018000FFF7F2FF03BC05F0CFFA000001F0D4FF47
:10019000044801F01EFC044800F039F901E000F0C9
:1001A0002EF8FCE7040000206C000020704700B52A
:1001B0000148FFF7FBFF00BD5400002010B52D489B
:1001C00000F0DCFA10BD10B52B4800F029F92A48E0
:1001D00000F0A0F9294801F048FA10BD704710B5A9
:1001E000244800F060FF10BD10B5254801F0F8F874
:1001F000234801F01EF91F4800F0A9FF10BD10B5FB
:1002000020480088012804DBFFF7D8FF00201D49A3
:1002100008801C484088022804DBFFF7D4FF002038
:100220001849488017488088052804DBFFF7D6FF67
:100230000020144988801348C0880A2804DBFFF78F
:10024000CEFF00200F49C8800E480089142804DB27
:10025000FFF7CAFF00200B49088110BD0021018172
:10026000C180818041800180704700B50548FFF75B
:10027000F5FF00BDB80000206C0000203C0100200C
:10028000FE000020600000202DE9F04781460C466A
:1002900015462946384806F081FC804641464FF015
:1002A0007E5006F03DFB0746214606F0C5FA06469D
:1002B0003146204606F034FBBDE8F0872DE9F041D9
:1002C00007460D4614462146284606F0B5FA06466E
:1002D0003146204606F024FBBDE8F0810FB4F0B5AE
:1002E0008DB005460F461A9C224617A904A805F0B2
:1002F000BAFE04A807C807AB07C321464FF07E50DB
:1003000006F00CFE0646324614A901A805F0ABFE25
:1003100001A807C80AAB07C307AA0AA9284605F01F
:10032000BEFE0DB0F0BC5DF814FB0FB4F0B58DB09F
:1003300005460F461A9C21464FF07E5006F0EEFD12
:100340000646324617A904A805F08DFE04A807C882
:1003500007AB07C3224614A901A805F084FE01A833
:1003600007C80AAB07C307AA0AA9284605F097FEE3
:100370000DB0F0BC5DF814FBDB0FC94010B50446AE
:10038000204600BF0446204605F02CFE044604F13A
:100390000C0005F027FEA0F10C0404F1180005F094
:1003A00021FEA0F1180404F1240005F01BFEA0F1C9
:1003B000240404F1300005F015FEA0F1300404F12E
:1003C0003C004FF07E5101600021C16081604160BE
:1003D00000BFA0F13C04204610BD10B504466222C7
:1003E0004FF47A71624802F015F910BD10B5044659
:1003F000604A61492046FFF747FF60490860604A4C
:100400005D492046FFF75AFF5C49486010BD10B5B2
:1004100004462046FFF7EAFF2046FFF7DEFF10BD47
:100420003EB50446524802F0C8F9514802F090FA2D
:100430004F49684602F0F7FA9DE80700C4E9041244
:10044000E0604B49684602F0E0FA9DE80700C4E925
:100450000712A0613EBDF0B599B00446219E0DA8DB
:1004600005F0C0FD0AA805F0BDFD07A805F0BAFD1E
:100470001EAD284605F0F0FD07463946284605F032
:10048000BAFD00BF0DA904F13C0001F0DFFB0DAA8D
:100490001EA904A805F01FFE04A807C80AAB07C3DD
:1004A000384A0AA904A805F0DEFD04A807C816AB5F
:1004B00007C316A907A805F0B2FD4FF080420AA9AC
:1004C00004A805F0D0FD04A807C810AB07C307AA0D
:1004D00010A901A805F0E3FD01A807C813AB07C3E5
:1004E00013A904F10C0005F09AFD324604F10C0149
:1004F00004F13C0001F0EEFB04F13C0001F08AFB4A
:1005000004F10803221D214604F13C0001F074FDB2
:1005100019B0F0BD10B588B00446184800680490C2
:10052000D4E90702A169CDE902020191E06A0090D5
:10053000214605A8D4E90923FFF7D0FE05A807C87E
:10054000C4E90A1260620C480390D4E90A12606A96
:100550008DE807002046D4E90423E168FFF77BFF1C
:1005600008B010BD10B50848FFF708FF10BD000027
:1005700078010020000020416F12033B540000204E
:100580009A99993F6F12833A6C00002070B5044627
:100590000E4615462A4604F10801FE4802F0E2FB29
:1005A00070BD73B50446AA202072AA216172F021A1
:1005B000A1720321E172BA2121739DF805106173C4
:1005C0009DF80410A1730025002006E004F1080145
:1005D000095C2944CDB2411CC8B20728F6DBE5739B
:1005E000082204F108012046FFF7D0FF7CBD2DE969
:1005F000F04105460C4616460027002004E0215C29
:100600003944CFB2411CC8B2711E8142F7DCA01937
:1006100010F8010CB84201D0BDE8F0812078AA287A
:1006200002D16078AF2800D0F6E70021DA484172A5
:10063000A078012811D12079012801D1D74908706B
:100640002079022802D10120D4494870207903285A
:1006500003D10120D14908704870A078022806D142
:100660002079012802D1A870E870287100BFA07815
:1006700003282FD12079617941EA0020C849C88038
:10068000A079E17941EA0020C5498880207A617A21
:1006900041EA0020C2490880A07AE17A41EA0020BC
:1006A000BF494880207B617B41EA0020BC4908812A
:1006B000A07BE17B41EA0020B9494881207C617C34
:1006C00041EA0020B6498881A07CE17C41EA002013
:1006D000B349C881A07810283DD12079617941EAD9
:1006E0000020B0490880A079E17941EA0020AD49B5
:1006F0004880207A617A41EA0020AA498880A07A5D
:10070000E17A41EA0020A7498882207B617B41EAA7
:10071000002081B2A348C182A07BE17B41EA002096
:1007200081B2A0480183207C617C41EA00209D4980
:100730000885A07CE17C41EA002081B2994841858E
:10074000207D617D41EA002081B29648818539464D
:100750002846FFF726FFA078112803D139462846FE
:10076000FFF71FFFA078122806D139462846FFF769
:1007700018FF8D4801F0E1F800BF4DE710B50446C1
:10078000844802F06CFB10BDF8B504460025AA228F
:1007900029466D1C04F10800425429466D1C425440
:1007A000112229466D1C4254002229466D1C4254D8
:1007B000002000909DF8012029466D1C04F10800DE
:1007C00042549DF8002029466D1C425400200090A0
:1007D0009DF8012029466D1C04F1080042549DF843
:1007E00000202846691CCDB204F108010A540020FB
:1007F00000909DF801202846691CCDB204F1080143
:100800000A549DF800202846691CCDB204F1080165
:100810000A54002000909DF801202846691CCDB2A2
:1008200004F108010A549DF800202846691CCDB245
:1008300004F108010A54002000909DF80120284688
:10084000691CCDB204F108010A549DF80020284625
:10085000691CCDB204F108010A54002000909DF8F3
:1008600001202846691CCDB204F108010A549DF804
:1008700000202846691CCDB204F108010A5400206A
:1008800000909DF801202846691CCDB204F10801B2
:100890000A549DF800202846691CCDB204F10801D5
:1008A0000A54002000909DF801202846691CCDB212
:1008B00004F108010A549DF800202846691CCDB2B5
:1008C00004F108010A54002000909DF801202846F8
:1008D000691CCDB204F108010A549DF80020284695
:1008E000691CCDB204F108010A54281FE0720026E9
:1008F000002006E004F10801095C3144CEB2411C3D
:10090000C8B2A842F6DB2846691CCDB204F1080142
:100910000E542A462046FFF739FEF8BDF8B50446C6
:100920000025AA2229466D1C04F1080042542946DC
:100930006D1C4254102229466D1C42540022294647
:100940006D1C42541748008800B200909DF80120A9
:1009500029466D1C04F1080042549DF800202946E8
:100960006D1C42540F48408800B200909DF8012051
:1009700029466D1C04F1080042549DF800202846C9
:10098000691CCDB204F108010A540648808800B2FF
:1009900000900BE0D00100205400002078010020DE
:1009A000FE0000203C010020040000209DF80120F2
:1009B0002846691CCDB204F108010A549DF80020B4
:1009C0002846691CCDB204F108010A54FE48808A09
:1009D00000B200909DF801202846691CCDB204F1B8
:1009E00008010A549DF800202846691CCDB204F184
:1009F00008010A54F448C08A00B200909DF8012012
:100A00002846691CCDB204F108010A549DF8002063
:100A10002846691CCDB204F108010A54EA48008B4B
:100A200000B200909DF801202846691CCDB204F167
:100A300008010A549DF800202846691CCDB204F133
:100A400008010A54E048008D00B200909DF8012092
:100A50002846691CCDB204F108010A549DF8002013
:100A60002846691CCDB204F108010A54D648408DCD
:100A700000B200909DF801202846691CCDB204F117
:100A800008010A549DF800202846691CCDB204F1E3
:100A900008010A54CC48808D00B200909DF80120D6
:100AA0002846691CCDB204F108010A549DF80020C3
:100AB0002846691CCDB204F108010A54281FE072CF
:100AC0000026002006E004F10801095C3144CEB2A2
:100AD000411CC8B2A842F6DB2846691CCDB204F11D
:100AE00008010E542A462046FFF750FDF8BDFEB51A
:100AF000044600256946B54800F051FC002008E096
:100B00003DF81010A1F57A7189B22DF81010411C32
:100B1000C8B20628F4DBAA222846691CCDB204F12B
:100B200008010A542846691CCDB204F108010A5490
:100B300006222846691CCDB204F108010A5400229D
:100B40002846691CCDB204F108010A549DF803201F
:100B50002846691CCDB204F108010A549DF8022010
:100B60002846691CCDB204F108010A549DF80720FB
:100B70002846691CCDB204F108010A549DF80620EC
:100B80002846691CCDB204F108010A549DF80B20D7
:100B90002846691CCDB204F108010A549DF80A20C8
:100BA0002846691CCDB204F108010A549DF80520BD
:100BB0002846691CCDB204F108010A549DF80420AE
:100BC0002846691CCDB204F108010A549DF80120A1
:100BD0002846691CCDB204F108010A549DF8002092
:100BE0002846691CCDB204F108010A549DF8092079
:100BF0002846691CCDB204F108010A549DF808206A
:100C00002846691CCDB204F108010A54281FE0727D
:100C10000026002006E004F10801095C3144CEB250
:100C2000411CC8B2A842F6DB2846691CCDB204F1CB
:100C300008010E542A462046FFF7A8FCFEBD70B5F9
:100C400004460025AA2229466D1C04F108004254DE
:100C500029466D1C4254032229466D1C4254002231
:100C600029466D1C42545A48C27929466D1C04F12C
:100C7000080042545648827929466D1C04F1080048
:100C800042545348427929466D1C04F108004254ED
:100C90004F4802792846691CCDB204F108010A5474
:100CA0004B4842782846691CCDB204F108010A5429
:100CB000474802782846691CCDB204F108010A545D
:100CC0004348C2782846691CCDB204F108010A5491
:100CD0003F4882782846691CCDB204F108010A54C5
:100CE0003B48427A2846691CCDB204F108010A54F7
:100CF0003748027A2846691CCDB204F108010A542B
:100D00003348C27A2846691CCDB204F108010A545E
:100D10002F48827A2846691CCDB204F108010A5492
:100D20002B48427B2846691CCDB204F108010A54C5
:100D30002748027B2846691CCDB204F108010A54F9
:100D40002348C27B2846691CCDB204F108010A542D
:100D50001F48827B2846691CCDB204F108010A5461
:100D6000281FE0720026002006E004F10801095C5B
:100D70003144CEB2411CC8B2A842F6DB2846691CF9
:100D8000CDB204F108010E542A462046FFF7FEFBBF
:100D900070BD70B588B004460025AA2229466D1C96
:100DA00004F10800425429466D1C4254022229468F
:100DB0006D1C4254002229466D1C42540549886925
:100DC00005F070FE00B207E03C010020F2000020B8
:100DD000FE0000206C00002007909DF81D20294691
:100DE0006D1C04F1080042549DF81C2029466D1C1E
:100DF0004254E249C86905F055FE00B207909DF8DB
:100E00001D2029466D1C04F1080042549DF81C2049
:100E10002846691CCDB204F108010A54D749086A72
:100E200005F040FE00B207909DF81D202846691C81
:100E3000CDB204F108010A549DF81C202846691C13
:100E4000CDB204F108010A54CD4901A801F0E4FD36
:100E500001A807C804AB07C305F024FE00B2079041
:100E60009DF81D202846691CCDB204F108010A54E2
:100E70009DF81C202846691CCDB204F108010A54D3
:100E8000BF4901A801F0C8FD01A807C804AB07C30A
:100E9000084605F007FE00B207909DF81D20284681
:100EA000691CCDB204F108010A549DF81C202846A3
:100EB000691CCDB204F108010A54B14901A801F03E
:100EC000ABFD01A807C804AB07C3104605F0EAFD57
:100ED00000B207909DF81D202846691CCDB204F190
:100EE00008010A549DF81C202846691CCDB204F163
:100EF00008010A5400222846691CCDB204F10801F9
:100F00000A542846691CCDB204F108010A54284647
:100F1000691CCDB204F108010A542846691CCDB2FF
:100F200004F108010A542846691CCDB204F10801F5
:100F30000A542846691CCDB204F108010A54281F3E
:100F4000E0720026002006E004F10801095C31444B
:100F5000CEB2411CC8B2A842F6DB2846691CCDB20D
:100F600004F108010E542A462046FFF70FFB08B093
:100F700070BD2DE9FC4104460025AA2229466D1CBE
:100F800004F10800425429466D1C425401222946AE
:100F90006D1C4254002229466D1C42547749086852
:100FA000784905F0FBFD074605F07CFD00B2019095
:100FB0009DF8052029466D1C04F1080042549DF857
:100FC000042029466D1C42546C4948686D4905F05F
:100FD000E5FD074605F066FD00B201909DF805208D
:100FE00029466D1C04F1080042549DF8042028464F
:100FF000691CCDB204F108010A546049886861494E
:1010000005F0CCFD074605F04DFD00B201909DF8BE
:1010100005202846691CCDB204F108010A549DF848
:1010200004202846691CCDB204F108010A540020AE
:1010300000909DF803202846691CCDB204F10801F8
:101040000A549DF802202846691CCDB204F108011B
:101050000A549DF801202846691CCDB204F108010C
:101060000A549DF800202846691CCDB204F10801FD
:101070000A54281FE0720026002006E004F108014F
:10108000095C3144CEB2411CC8B2A842F6DB284606
:10109000691CCDB204F108010E542A462046FFF720
:1010A00075FABDE8FC8110B5044637480078012880
:1010B00004D0022805D01E280AD105E00120607165
:1010C00014E00120E07111E000202F4908700DE0CC
:1010D0002D480078032190FBF1F201FB120010B1C2
:1010E0000120607001E00120207000BF00BF264891
:1010F0000078401C24490870207820B1002020701E
:101100002046FFF736FF607820B10020607020464F
:10111000FFF73FFE607920B1002060712046FFF7A5
:101120008EFDE07920B10020E0712046FFF7DFFC62
:10113000A07820B10020A0702046FFF7EFFBE078F8
:1011400020B10020E0702046FFF71EFB10BD0F49C4
:1011500009781E290CDD00210C4A11700C49497ACE
:1011600019B901220A494A7202E00021084A1172A3
:1011700006490978491C054A117070476C00002027
:10118000780100200000C84200000020010000207B
:10119000540000202DE9F0478EB004460D46164657
:1011A0009A46DDF85890484605F007F9CDE90A015E
:1011B000504605F002F907467F4A804B05F028F9B2
:1011C000CDE90601304605F0F8F8074600227C4BD1
:1011D00005F01EF9CDE90201284605F005F9CDE933
:1011E0000001DDE9022305F011FACDE90401DDE992
:1011F000062304F0DDFFCDE90801DDE90A2304F050
:10120000D7FFCDE90C0105F0ABF82080484605F08A
:10121000D4F8CDE90A01504605F0CFF80746664AF2
:10122000664B05F0F5F8CDE90601304605F0C5F846
:1012300007460022624B05F0EBF8CDE90201284693
:1012400005F0D2F8CDE90001DDE9022305F0DEF971
:10125000CDE90401DDE9062305F0D8F9CDE908015F
:10126000DDE90A2304F0A4FFCDE90C0105F078F8CC
:101270006080484605F0A1F8CDE90A01504605F026
:101280009CF807464C4A4D4B05F0C2F8CDE90601E3
:10129000304605F092F807460022494B05F0B8F8B1
:1012A000CDE90201284605F09FF8CDE90001DDE90E
:1012B000022304F07DFFCDE90401DDE9062304F0FB
:1012C00077FFCDE90801DDE90A2305F09FF9CDE9B3
:1012D0000C0105F045F8A080484605F06EF8CDE910
:1012E0000A01504605F069F80746334A334B05F0CA
:1012F0008FF8CDE90601304605F05FF80746002279
:101300002F4B05F085F8CDE90201284605F06CF871
:10131000CDE90001DDE9022304F04AFFCDE9040133
:10132000DDE9062305F072F9CDE90801DDE90A23BC
:1013300005F06CF9CDE90C0105F012F8E080A81B6E
:10134000A0EB09002081A8194844608100270BE028
:1013500034F8170040F26C7240F24C4100F0CEFBC2
:1013600024F81700781CC7B2062FF1DB1548007A65
:1013700020B11548C088B0F5966F09DA002005E065
:101380004FF47A7124F81010411CC8B20628F7DB1C
:1013900021460E4801F04DFE0EB0BDE8F0870288F0
:1013A0000A8042884A8082888A80C288CA800289EC
:1013B0000A8142894A81704783C0CAA145B6EB3F82
:1013C0000000E03F54000020FE000020200000202C
:1013D000704700B501460846FFF7FAFF084600BD12
:1013E0002DE9F04704464FF0000916E034F81910D3
:1013F000A1F2DC5004F0E1FF07460022424B05F069
:1014000007F8054604F07CFF01B204F1100020F853
:10141000191009F1010000F0FF09B9F1030FE5DB34
:10142000A08A404201B2A182E08801B2E182BDE817
:10143000F0870146002025E031F81020B2F5617FE9
:1014400004DB31F81020B2F5FA6F00DD1CE031F852
:10145000102040F27E439A4207DA2C4A125C2C4B51
:101460001B781A432A4B1A700BE031F81020B2F5A2
:10147000E16F06DD274A125C254B1B781A43244B8B
:101480001A70401C0428D7DB00BF214A12784AB1E9
:10149000214A1278FA2A0ADA1F4A1278521C1E4B85
:1014A0001A7004E000221C4B1A70194B1A701A4A69
:1014B0001278642A22D1194A127A6AB1144A12782F
:1014C00002F01002AAB1124A127802F0400282B170
:1014D0000022124B1A720CE00D4A127802F0200220
:1014E0003AB10B4A127802F0400212B101220B4BC2
:1014F0001A720022064B1A70074B1A70704700B51B
:101500000748FFF766FF00BD0000D03FE670000807
:1015100003000020EA7000080200002054000020B0
:10152000FE000020F0B503469888D0B1CAB1186912
:101530000C1A19611546D61702EB167636114FF6BE
:10154000FF7797FBF6F606FB04F0C61700EB9666EE
:10155000B411988800FB04F5E81705EB9070801033
:10156000F0BD0020FCE770B504460E4615466088C5
:10157000B8B1B5B106FB05F0C11700EB5151C91266
:101580006288E36801FB0231E160A2685142E068D1
:1015900000F0BFFAE060E168C81701EBD0404013EB
:1015A00070BD0020FCE70246108800FB01F3D8174D
:1015B00003EB9060801170472DE9F04104460D4621
:1015C000164629462046FFF7EEFF074632462946D3
:1015D0002046FFF7C8FF0744324629462046FFF75A
:1015E000A1FF3844BDE8F0812DE9F04104460D46E5
:1015F000164629462046FFF7D6FF074632462946BB
:101600002046FFF7B0FF3844BDE8F0810021C160FB
:101610007047000038B50446684841231922372135
:101620000090204604F087F86448412319223721AE
:10163000009004F1140004F07EF860480023322288
:101640001146009004F1280004F075F838BD10B57B
:101650000446032314225A49204604F093F8044612
:101660002046FFF7D7FF204610BD2DE9F0418CB092
:10167000054654490868544905F090FA074653490D
:10168000B1F910104800FA22514200F042FA8046A7
:1016900005F024FA0646394605F040FC044605F0FC
:1016A00001FA069047494868474905F077FA074626
:1016B0004649B1F912104800FA22514200F029FAC5
:1016C000804605F00BFA0646394605F027FC04462D
:1016D00005F0E8F907903E49684601F09DF99DE85C
:1016E000070003AB07C310464FF0814105F018F91E
:1016F00006463649B1F9141001EB810005F0EEF908
:101700000746314605F00AFC044605F0CBF908907F
:1017100000241BE02D48C08840F27E41884205DA53
:1017200004EB840105EB8100FFF770FF06AA52F875
:10173000241004EB840205EB82004FF4FA62FFF7F9
:101740003BFF09A941F82400601CC4B2032CE1DB73
:101750001E4BB3F91430002B03DD1C4BB3F91430CE
:1017600003E01A4BB3F914305B4203F59672174B42
:10177000B3F91430002B03DD144BB3F9143003E03C
:10178000124BB3F914305B42124CE11A0B9800F083
:10179000C0F940420B900B9800900C48C08A81B26F
:1017A0000D48DDE90923FFF7F5FC0CB0BDE8F08139
:1017B00010B50A48FFF74BFF10BD000080841E00E3
:1017C000455700086C00002000002041FE0000206A
:1017D00078010020D4FEFFFFF20000203C01002031
:1017E00010B504469C4908889C49098801F0BCFE54
:1017F00010BD1CB5044698490889694601F00FFDE3
:10180000954948890DF1020101F009FD9249888945
:1018100001A901F004FDBDF8000000B29049088163
:10182000BDF8020001B28E484181BDF8040001B24A
:101830008B4881811CBD1CB5044687494888694690
:1018400001F0EDFC844988880DF1020101F0E7FC0C
:101850008149C88801A901F0E2FCBDF8000000B28E
:101860007F494880BDF8020001B27D488180BDF803
:10187000040001B27A48C1801CBD38B504467649DF
:10188000C889694601F0CBFCBDF8000075490880A5
:101890007149088A694601F0C2FCBDF8000071492F
:1018A00048806D49488A694601F0B9FCBDF80000DE
:1018B0006C4988806849888A694601F0B0FCBDF8A7
:1018C0000000684988826449C88A694601F0A7FC1B
:1018D000BDF800106348C1825F49088B694601F07A
:1018E0009EFCBDF800105F4801835B49488B694648
:1018F00001F095FCBDF800005A4908855649888BCF
:10190000694601F08CFCBDF80010564841855249EB
:10191000C88B694601F083FCBDF8001051488185F1
:1019200038BD10B504462046FFF7A7FF2046FFF755
:1019300082FF2046FFF75DFF10BD70B505464948A0
:1019400004884549C889214601F00EFE454844886F
:101950004149088A214601F007FE424884883E49F1
:10196000488A214601F000FE3E48848A3A49888A26
:10197000214601F0F9FD3B48C48A3749C88A21460F
:1019800001F0F2FD3748048B3349088B214601F002
:10199000EBFD3448048D3049488B214601F0E4FDCD
:1019A0003048448D2C49888B214601F0DDFD2D48BF
:1019B000848D2949C88B214601F0D6FD70BD38B50C
:1019C000044625490888694601F029FCBDF8000055
:1019D00038BD10B504462046FFF7F1FF1F490988BE
:1019E000884202D02046FFF7A8FF2046FFF799FF64
:1019F0002046FFF7F5FE10BD10B50446184A528880
:101A000091B2154A508801F0AFFD154A928891B203
:101A1000114A908801F0A8FD114AD28891B20E4A6D
:101A2000D08801F0A1FD10BD10B504460C4A128902
:101A300091B2094A108901F097FD094A528991B281
:101A4000054A508901F090FD054A928991B2024AF7
:101A5000908901F089FD10BDEE700008060000209D
:101A6000780100203C01002010B50446204603F018
:101A700082FE08B1002010BD4FF07E51204605F0D7
:101A800059F901D85E48F6E75E49204605F052F85C
:101A900001D85D48EFE7204603F040FFEBE72DE972
:101AA000F04106460C461546304603F064FE50B140
:101AB0002946204604F0C0FE07464FF07C5105F051
:101AC0006DF8BDE8F0812146304605F033F801D2CB
:101AD0002046F6E72946304605F02CF901D2284683
:101AE000EFE73046EDE703468B4201DA08467047E0
:101AF000934201DD1046FAE71846F8E703468B42A9
:101B000001DA08467047934201DD1046FAE71846AD
:101B1000F8E703468B4201DA08467047934201DD3D
:101B20001046FAE71846F8E710B50446374920464C
:101B300005F034F810BD10B504463549204605F0CF
:101B40002DF810BD10B504462146204605F026F8B4
:101B500010BD2DE9F04105460C462046FFF7F2FF87
:101B600007462846FFF7EEFF8046394604F064FE3C
:101B7000064604F01DFABDE8F0812DE9F05F064647
:101B80000C4615462846FFF7DDFF81462046FFF745
:101B9000D9FF82463046FFF7D5FF8346514604F011
:101BA0004BFE8046494604F047FE074604F000FA23
:101BB000BDE8F09F2DE9FE4F07460C4615461E4630
:101BC0003046FFF7BFFF02902846FFF7BBFF0190AA
:101BD0002046FFF7B7FF00903846FFF7B3FF834674
:101BE000009904F029FE8246019904F025FE814601
:101BF000029904F021FE804604F0DAF9BDE8FE8F78
:101C0000DB0FC93F000080BFDB0FC9BF34FA8E3C39
:101C1000E12E654270B5044694E80F00FFF7CAFF55
:101C200005462946206804F07BFE2060294660684E
:101C300004F076FE60602946A06804F071FEA060A2
:101C40002946E06804F06CFEE06070BD2DE9F047C5
:101C500004460D46A168206804F0A0FF0746E1682D
:101C6000606804F09BFF8046394605F057F9064648
:101C70004FF0804104F092FF2860D4E9020104F0A3
:101C80008DFF0746D4E9000104F088FF80463946FD
:101C900004F0D2FD06464FF0804104F07FFF6860FB
:101CA000A168084604F07AFF80466168084604F09F
:101CB00075FF8146414604F0BFFD07464FF0804165
:101CC00004F06CFF06464FF07E5105F095F8A860D1
:101CD000BDE8F0872DE9F04F8FB004468946924663
:101CE000504604F07DFDCDE90801D9F80810E06800
:101CF00004F054FF0490D9F80410A06804F04EFFDB
:101D00000390606880F000400190D9F8001004F062
:101D100045FF0290039905F001F98346049905F007
:101D2000FDF8059004F05CFD07460022F64B04F038
:101D30006FFBCDE90601DDE9082304F069FB0546E8
:101D40000E46206804F04CFD2A463346CDE90A01D0
:101D500004F02EFACDE90C0104F0F8F920605046A9
:101D600004F03EFDCDE90601D9F80410E06804F066
:101D700015FF0490D9F80810A06804F00FFF039035
:101D8000D9F80010206804F009FF0290039904F0CC
:101D900053FD8346049905F0C1F8059004F020FD39
:101DA00007460022D84B04F033FB0546DDE9062345
:101DB00004F02EFBCDE90A01606804F011FDCDE9C5
:101DC0000801DDE90A2304F0F3F9CDE90C0104F080
:101DD000BDF96060504604F003FDCDE90801D9F873
:101DE0000010E06804F0DAFE0490D9F8081060688A
:101DF00004F0D4FE0390D9F80410206804F0CEFE5D
:101E00000290039905F08AF88346049904F014FDC2
:101E1000059004F0E5FC0022BB4BCDE9060104F07F
:101E2000F7FA0746DDE9082304F0F2FACDE90A01E2
:101E3000A06804F0D5FC0546DDE90A2304F0B8F9F2
:101E4000CDE90C0104F082F9A060504604F0C8FC12
:101E5000CDE90601D9F80010A06804F09FFE0390B8
:101E6000D9F80410606804F099FE8346D9F8081088
:101E7000206804F093FE5946029004F0DDFC804691
:101E8000039905F04BF8074604F0AAFC054600222A
:101E90009D4B04F0BDFACDE90401DDE9062304F011
:101EA000B7FACDE90A01E06804F09AFCCDE908012F
:101EB000DDE90A2304F07CF9CDE90C0104F046F9D0
:101EC000E0600FB0BDE8F08F2DE9F04F85B004461B
:101ED0000D4616461F464FF07C51284604F05EFE24
:101EE000824603F0DDFE80464FF07C51304604F020
:101EF00055FE824603F0D4FE81464FF07C513846B1
:101F000004F04CFE824603F0CBFE04904FF07C516F
:101F1000284604F043FE824603F084FF03904FF00E
:101F20007C51304604F03AFE824603F07BFF02907B
:101F30004FF07C51384604F031FE824603F072FFC8
:101F40000190DDE9021004F029FE0090019904F0EF
:101F500025FE82464946404604F020FE0090049942
:101F600004F01CFE8346514604F066FC20604046A7
:101F7000029904F013FE0090019904F00FFE8246CE
:101F80004946039804F00AFE0090049904F006FE06
:101F90008346514604F0C2FF60604946039804F04E
:101FA000FDFD0090019904F0F9FD8246404602993A
:101FB00004F0F4FD0090049904F0F0FD83465146CE
:101FC00004F03AFCA060DDE9021004F0E7FD0090A7
:101FD000049904F0E3FD82464946404604F0DEFDE4
:101FE0000090019904F0DAFD8346514604F096FF13
:101FF000E06005B0BDE8F08F2DE9FE4F04460D46C8
:1020000016461F468DB3A168084604F0C7FD01902F
:102010006168084604F0C2FD0090019904F00CFCD0
:1020200083464FF0804104F0B9FD82464FF07E5167
:1020300004F0E2FE8146D4E9020104F0AFFD8346DC
:10204000D4E9000104F0AAFD5946019004F0F4FB24
:1020500082464FF0804104F0A1FD4946029003F012
:10206000F1FC8046FFF767FD2860C6B1E168606853
:1020700004F094FD8346A168206804F08FFD594662
:10208000029004F04BFF82464FF0804104F086FD41
:102090008146FFF7E9FC8046FFF74DFD30608FB3C6
:1020A0006168084604F07AFD01902168084604F052
:1020B00075FD0090019904F0BFFB83464FF080410D
:1020C00004F06CFD82464FF07E5104F027FF029031
:1020D000E168206804F062FD8346D4E9010104F060
:1020E0005DFD5946019004F019FF82464FF0804192
:1020F00004F054FD8146029903F0A4FC8046FFF7EA
:102100001AFD3860BDE8FE8F0000E03F29480088D6
:10211000401C2849088008464088401C48800846E2
:102120008088401C88800846C088401CC8800846BB
:102130000089401C0881704770B54FF4407001F071
:102140002DFA1D4800684FF47A72B0FBF2F1481E78
:10215000B0F1807F00D31BE0481E4FF0E0225061B9
:1021600050170F22002807DA13071D0E134B00F03B
:102170000F04241F1D5503E013071C0E104B1C54A5
:1021800000BF00204FF0E02290610720106100BFE7
:1021900000F029F800F080FC50220421094800F0EA
:1021A00052FD45F6C05000F095FE02F012FD01F020
:1021B00056F970BD600000204000002018ED00E0DE
:1021C00000E400E0D0010020704700BFFEE700BF40
:1021D000FEE700BFFEE77047704710B5FFF796FFB8
:1021E00010BD7047704708B50121082001F060FD5F
:1021F0004020ADF8000003208DF8020014208DF877
:1022000003006946E84801F097FA8020ADF8000025
:1022100003208DF8020014208DF803006946E2487F
:1022200001F08AFA08BD704700B501464020DE4A39
:10223000143210600846FFF7F6FF8020DA4A1432A5
:1022400010600846FFF7EFFF4020D74A10321060B9
:102250000846FFF7E8FF8020D34A10321060084696
:10226000FFF7E1FF00BD00B501464020CE4A143221
:1022700010600846FFF7D7FF8020CB4A103210606D
:102280000846FFF7D0FF4020C74A103210600846CA
:10229000FFF7C9FFC4480830006800F0800040B173
:1022A0004020C14A143210600846FFF7BCFF0020EE
:1022B00000BD4020BC4A143210600846FFF7B3FF4F
:1022C0000120F5E710B5024608231DE04020B64C7A
:1022D000143420601046FFF7A6FF01F0800018B10B
:1022E0008020241F206003E08020AF4C1434206045
:1022F0004806010E1046FFF796FF4020AA4C103406
:1023000020601046FFF78FFF1800A3F10104E3B22D
:10231000DCD14020A44C1434206010BD00B501462F
:102320008020A14A10321060402010600846FFF75C
:102330007AFF9D480830006808B9012000E00020BD
:1023400000F0800008B1002000BD8020964A1432C1
:1023500010600846FFF767FF93480830006800F0F8
:10236000800008B10020EFE780208F4A143210600F
:102370000846FFF758FF0120E6E7F0B506460F468E
:1023800014461D463046FFF7C9FF08B90020F0BDCE
:1023900039463046FFF796FF3046FFF764FF20B915
:1023A0003046FFF741FF0020F1E721463046FFF7B6
:1023B00089FF3046FFF757FF29463046FFF782FF77
:1023C0003046FFF750FF3046FFF72EFF0120DEE7D3
:1023D00000B501464020744A143210600846FFF7E9
:1023E00022FF8020704A103210600846FFF71BFF62
:1023F00040206D4A103210600846FFF714FF40205D
:10240000694A143210600846FFF70DFF00BD10B591
:102410000246082300218020634C1034206016E01F
:102420004806010E4020604C143420601046FFF72F
:10243000FAFE4020241F20601046FFF7F4FE5A48A1
:102440000830006800F0800008B141F00101180078
:10245000A3F10104E3B2E3D14020534C14342060D3
:10246000084610BDF0B506460C4615463046FFF747
:1024700055FF08B90020F0BD21463046FFF722FF86
:102480003046FFF7F0FE20B93046FFF7CDFE0020C2
:10249000F1E729463046FFF715FF3046FFF7E3FE28
:1024A0003046FFF73BFF601CC1B23046FFF70AFF22
:1024B0003046FFF7D8FE3046FFF7A9FF0746304603
:1024C000FFF786FF3046FFF7AFFE3846D3E700B58B
:1024D00001464020344A143210600846FFF7A3FE3C
:1024E0008020314A143210600846FFF79CFE4020DD
:1024F0002D4A103210600846FFF795FE40202A4A08
:10250000143210600846FFF78EFE00BD2DE9F0433F
:1025100081460E4617461C46DDF81C80B8F1010FB7
:1025200002DA0020BDE8F0834846FFF7F7FE08B95D
:102530000020F7E731464846FFF7C4FE4846FFF75C
:1025400092FE20B94846FFF76FFE0020EAE73946C1
:102550004846FFF7B7FE4846FFF785FE4846FFF7B7
:10256000DDFE701CC1B24846FFF7ACFE4846FFF7DF
:102570007AFE012509E04846FFF749FF04F8010B00
:102580004846FFF7A4FF681CC5B24545F3DB484643
:10259000FFF73DFF04F8010B4846FFF719FF4846D7
:1025A000FFF742FE0120BDE7000C014010B50446D4
:1025B0002046FFF717FE0446A01C03F044FD841ECE
:1025C00004F1080003F03FFDA0F1080404F11C0031
:1025D00003F008FDA0F11C0404F1280003F002FD43
:1025E000A0F1280404F1340003F0FCFCA0F1340451
:1025F000204610BD30B50346C822002007E000BFCA
:102600001400A2F10105AAB2FAD1441CE0B288423A
:10261000F5DB30BD2DE9F04107460D4616462A2E62
:1026200015D006DC052E0CD00A2E0CD0142E16D197
:102630000BE0622E0DD0BC2E0DD0B6F5807F0ED1F2
:102640000BE006240DE005240BE0042409E003243C
:1026500007E0022405E0012403E0002401E0022455
:1026600000BF00BF80236B22D0213846FFF785FED4
:1026700005213846FFF7BEFF4FF47A7090FBF5F066
:10268000401E00F0FF0843461922D0213846FFF7CC
:1026900074FE03236B22D0213846FFF76EFE02231F
:1026A0003722D0213846FFF768FE23461A22D02170
:1026B0003846FFF762FE18231B22D0213846FFF769
:1026C0005CFE10231C22D0213846FFF756FEBDE8E1
:1026D000F0812DE9F0410446207800286BD0E548D0
:1026E000007800F0010048B9E24803F05DF828B135
:1026F000E14803F077FCDF48AFF30080DF48008853
:1027000080B900231A461946A01C03F0A1FC00233F
:102710001A461946D84803F06AFC0120D7490880B8
:10272000BDE8F08104F11C01D34803F078FCD348E4
:102730000088B0F5C87F39D1D048008804F0E6F9A8
:102740000646CD490868314604F0EAF8054604F02B
:10275000A9F900B26080C948008804F0D7F906469C
:10276000C5494868314604F0DBF8054604F09AF99B
:1027700001B2A180C148008804F0C8F90746BE49EB
:102780008868394604F0CCF806464FF08B4104F0D7
:10279000C5FB054604F086F901B2E1800020B74987
:1027A00008802070B648FFF727F9B9E7B3480088DA
:1027B000401CB249088000BFB2E72DE9FC41044645
:1027C0003C22D0212046FFF74DFEA0733B22D021B2
:1027D0002046FFF747FEE073A17BE07B41EA002043
:1027E0006188401A00B2ADF800003E22D021204698
:1027F000FFF738FE20743D22D0212046FFF732FE3D
:102800006074217C607C41EA0021A088081A00B233
:10281000ADF802004022D0212046FFF723FEA0742D
:102820003F22D0212046FFF71DFEE074A17CE07C12
:1028300041EA0021E088081A00B2ADF80400BDF9B1
:10284000040004F04BF90546BDF9020004F046F916
:102850000646BDF9000004F041F907462B46324612
:10286000394604F11C0003F0C2FB2046FFF731FF9C
:10287000BDE8FC8170B504466078002866D08148C8
:10288000007800F0010048B97E4802F08DFF28B1C1
:102890007D4803F0A7FB7B48AFF300807B480088AE
:1028A00080B900231A46194604F1080003F0D0FB52
:1028B00000231A461946744803F099FB0120734916
:1028C000088070BD04F128016F4803F0A8FB6F4831
:1028D0000088B0F57A7F34D16C48008804F016F98E
:1028E000064669490868314604F01AF8054604F0BE
:1028F000D9F800B220816548008804F007F906463F
:1029000061494868314604F00BF8054604F0CAF8FE
:1029100001B261815D48008804F0F8F806465A4922
:102920008868314603F0FCFF054604F0BBF801B2AD
:10293000A18100205549088060705148FFF774F864
:10294000BFE752480088401C5049088000BFB8E7E4
:102950002DE9FC4104464422D0212046FFF782FDA8
:1029600020754322D0212046FFF77CFD6075217D34
:10297000607D41EA00202189401A00B2ADF80000D4
:102980004622D0212046FFF76DFDA0754522D021BB
:102990002046FFF767FDE075A17DE07D41EA00215B
:1029A0006089081A00B2ADF802004822D021204602
:1029B000FFF758FD20764722D0212046FFF752FD31
:1029C0006076217E607E41EA0021A089081A00B26B
:1029D000ADF80400BDF9040004F080F80546BDF927
:1029E000020004F07BF80646BDF9000004F076F81A
:1029F00007462B463246394604F1280003F0F7FA21
:102A00002046FFF737FFBDE8FC8110B5D1E9083457
:102A1000CA6980E81C0010BD10B5D1E90B348A6A80
:102A200080E81C0010BD70B505460C461849A06A28
:102A300004F0B4F80646FFF777F860631449E06ADB
:102A400004F0ACF80646FFF76FF8A0631049206B5E
:102A500004F0A4F80646FFF767F8E063D4E90E1225
:102A6000606B85E8070070BD10B50A48FFF79EFD52
:102A700010BD000008000020B80100200C0000205C
:102A80000400002010000020C401002014000020D9
:102A90008DC1793D7801002000B587B00121082063
:102AA00001F006F90121042001F002F90121880357
:102AB00001F00BF94FF46040ADF8040001208DF8EF
:102AC000060018208DF8070001A9414800F034FEE7
:102AD0004FF48070ADF8040001208DF8060010203E
:102AE0008DF8070001A93B4800F026FE4FF4805006
:102AF000ADF8040001208DF8060010208DF80700C5
:102B000001A9334800F018FE4FF48051304800F01E
:102B1000C0FE0020ADF808004FF48270ADF80A0046
:102B20000020ADF80C00ADF80E00ADF810004FF429
:102B30000070ADF812000820ADF814000020ADF8C8
:102B400016000720ADF8180002A9234802F036FC51
:102B50000121214802F0D7FC07B000BD70B5054641
:102B60000C4600BF02211C4802F051FD0028F9D09C
:102B70002146194802F0F8FC00BF0121164802F076
:102B800046FD0028F9D0144802F0F0FCC0B270BD38
:102B900010B504464FF480710E4800F07AFE10BD67
:102BA00010B504464FF480710A4800F074FE10BD61
:102BB00010B504464FF48051054800F06AFE10BD80
:102BC00010B504464FF48051014800F064FE10BD7A
:102BD000000C014000080140003800402DE9F041A0
:102BE00005460E4614462846FFF7EAFF31462846BA
:102BF000FFF7B4FF074621462846FFF7AFFF2846F8
:102C0000FFF7D6FF3846BDE8F0812DE9F0470746CB
:102C1000884615461E463846FFF7D2FF41463846DD
:102C2000FFF79CFF8146002405E0295D3846FFF749
:102C300095FF601CC4B2B442F7DB3846FFF7B8FF1B
:102C40004846BDE8F08770B505460C46164628464E
:102C5000FFF7A6FF05239C4A2A212846FFF7D5FF48
:102C600005239A4A30212846FFF7CFFF0122212170
:102C70002846FFF7B3FF012222212846FFF7AEFFC7
:102C80001A2224212846FFF7A9FF3246252128468B
:102C9000FFF7A4FF0F2226212846FFF79FFF012CF4
:102CA0000AD1FF2231212846FFF798FF0F22202169
:102CB0002846FFF793FF51E0022C0AD1FF22312171
:102CC0002846FFF78BFF0E2220212846FFF786FFBC
:102CD00044E0032C21D1FF22E1212846FFF77EFFAB
:102CE000FF22E2212846FFF779FF0F222021284604
:102CF000FFF774FF50212846FFF730FF7321284665
:102D0000FFF72CFF01223C212846FFF767FF062230
:102D10003D212846FFF762FF20E00E2220212846B1
:102D2000FFF75CFFFF22E1212846FFF757FFFF2254
:102D3000E2212846FFF752FF50212846FFF70EFFF9
:102D400073212846FFF70AFF01223C212846FFF79E
:102D500045FF06223D212846FFF740FF2846FFF7A2
:102D600017FF70BD70B506460C4615463046FFF796
:102D700017FF0523554A2A213046FFF746FF2B4609
:102D80002246A0213046FFF740FF3046FFF700FF04
:102D900070BD70B506460C4615463046FFF700FF7D
:102DA0002B462246A8213046FFF72FFF3046FFF77B
:102DB000EFFE70BD2DE9F0470746884615461E46D2
:102DC0003846FFF7FDFE41463846FFF7C7FE81460D
:102DD000002406E000213846FFF7C0FE2855601C9D
:102DE000C4B2B442F6DB3846FFF7E2FE4846BDE81F
:102DF000F0877CB505460523344A30212846FFF785
:102E000004FF05236A4610212846FFF7D3FF00245C
:102E100008E01DF804002D49095D884200D003E058
:102E2000601CC4B2052CF4DB00BF052C01D10120CD
:102E30007CBD0020FCE770B504460D462046FFF738
:102E4000BFFE29462046FFF789FE00212046FFF7F6
:102E500085FE06462046FFF7ABFE304670BD70B5D6
:102E6000054607212846FFF7E6FF044604F0400028
:102E7000C0B160212846FFF7DEFF0646212E0BDA9F
:102E800033462A4661212846FFF794FF32462946F9
:102E90000F48FDF7ACFB04E0FF22E2212846FFF7D4
:102EA0009DFE00BF04F0100038B104F0010020B115
:102EB000FF22E1212846FFF791FE224627212846DE
:102EC000FFF78CFE70BD00001B00002016000020E4
:102ED000B800002030B589B0054601210C2000F073
:102EE000E7FE0F20ADF8040003208DF8060018203F
:102EF0008DF8070001A96D4800F01EFC0320ADF815
:102F0000040001A96A4800F017FC00BF012108462F
:102F100000F0DBFE4FF47A70684366490968B1FB44
:102F2000F0F0401E84B240F2E730ADF81C00ADF87E
:102F300018400020ADF81E00ADF81A0006A94FF0A9
:102F4000804000F0EDFF6020ADF808000120ADF8F2
:102F50000A000020ADF80E00ADF8100002A94FF0F5
:102F6000804001F01AF80821C80601F065FC02A9AA
:102F70004FF0804001F053F80821C80601F065FCCD
:102F800002A94FF0804001F097F80821C80601F02F
:102F900069FC02A94FF0804001F0D9F80821C80669
:102FA00001F069FC0121880701F016FC0121880766
:102FB00001F012FB0121022000F087FE3D4800686D
:102FC0003D49B0FBF1F0401E84B240F2E730ADF86D
:102FD0001C00ADF818400020ADF81E00ADF81A0036
:102FE00006A9364800F09CFF6020ADF808000120DB
:102FF000ADF80A000020ADF80E00ADF8100002A9EF
:103000002E4801F059F808212C4801F02BFC02A9A8
:103010002A4801F09CF80821284801F02CFC0121E5
:10302000264801F0D9FB0121244801F0D5FA09B066
:1030300030BD0246002014E031F81030B3F57A7F3D
:1030400004DA4FF47A7321F8103008E031F81030C8
:10305000B3F5FA6F03DD4FF4FA6321F81030431C27
:10306000D8B20628E8DB0888A0F57A704FF08043D4
:1030700098864888A0F57A70104B3C331880888871
:10308000A0F57A704FF080439887C888A0F57A70D1
:103090000A4B403318800889A0F57A701B06188700
:1030A0004889A0F57A70064B1880704700080140E7
:1030B000000C01404000002000366E01000400407A
:1030C00040000040034606210622F7480188F748E1
:1030D0000288ABB1012B1BD13AB94EF6EE608142AA
:1030E00001D1002070470120FCE739B94EF6EE60AF
:1030F000824201D10120F5E70020F3E7AB20F1E7A0
:1031000009B90020EEE70AB90120EBE7AB20E9E7B7
:103110000020E7E770B5042600240120FFF7D2FF66
:103120000446AB2C06D1E04800EB8420E04908605F
:10313000AB2070BDDC4800EB8420DD490860601CDA
:10314000D949891E01EB80250CE0D9480068006848
:10315000401C10B904263046EBE7D5480068001D36
:10316000D3490860D2480068A842EED38020E0E747
:1031700010B50424CC4801F071FD0446042C01D0A4
:10318000204610BD0021C84801F06BFE0446042C07
:1031900001D02046F5E7C54801F060FD0446204611
:1031A000EFE72DE9F04104460F4604250026DFF83D
:1031B00004830120FFF786FF0646AB2E01D1BDE850
:1031C000F081701CB849891E01EB802821E0B848C5
:1031D00000680068401CB8B93946B548006801F07D
:1031E00040FE0546042D01D02846E8E72146B048B8
:1031F0000068801C01F035FE0546AD480068001DE2
:10320000AB4908602846DAE7A9480068001DA849CC
:103210000860A74800684045D9D38020CFE72DE952
:10322000F04706460F46002545F255584FF0010974
:103230009D4CA2460020FFF745FF0546AB2D01D16E
:10324000BDE8F087984800EB852A99480068841EFD
:103250000AE0B4F80080B04505D134F8020C38809B
:103260004FF0000904E0241F0AF102008442F0D864
:1032700000BF4846E4E72DE9F0474FF0060A06266E
:1032800000250027A8464FF0FF398748B0F800A076
:10329000864806885FEA0A0075D0A0F56E40EE38D1
:1032A00058B3A0F58850113800286DD146B97E4832
:1032B00001F0D4FC0446042C1ED02046BDE8F08763
:1032C0004EF6EE60864210D1774801F0C7FC044606
:1032D000042C01D02046F1E70021744801F0C1FD23
:1032E0000446042C08D02046E8E7FFF741FF0446D7
:1032F000042C01D02046E1E7AEE07EBB002522E0B1
:103300006948C0886C4931F81510884201D10FFA1C
:1033100085F94D4515D0684931F815006749FFF723
:103320007EFF8046B8F1010F0BD0634931F81500DC
:1033300062490988FFF735FF0746042F01D0384658
:10334000BCE7681C85B2102DDADB0021564801F07D
:1033500088FD0446042C02D02046AFE707E053481E
:1033600001F07CFC0446042C1FD02046A6E74FF653
:10337000FF70864212D14D4801F070FC0446042CC7
:1033800003D020469AE711E05EE00021464801F0B4
:1033900068FD0446042C08D020468FE7FFF7E8FEBE
:1033A0000446042C01D0204688E755E036B9FFF7E3
:1033B000DFFE0446042C46D020467FE74FF6FF7020
:1033C000864207D1394801F049FC0446042C3AD022
:1033D000204673E7002523E03448801D00883649E5
:1033E00031F81510884201D10FFA85F94D4515D0F5
:1033F000314931F815003149FFF711FF8046B8F126
:10340000010F0BD02C4931F815002C490988FFF722
:10341000C8FE0746042F01D038464FE7681C85B226
:10342000102DD9DB0021214801F01BFD0446042C9E
:1034300001D0204642E71C4801F010FC0446042C51
:1034400001D020463AE707E0FFF792FE0446042C3D
:1034500001D0204632E700BF00BF04202EE710B5A0
:10346000FFF709FF0446FFF755FE204610BD2DE982
:10347000F84F074689460425DFF830A0AAF1010A73
:10348000094800904FF00008002400264FF0000B80
:103490000020FFF717FE8046B8F1010F10D1DFF8CA
:1034A00008A00248009016E000000108000401088E
:1034B00028000020FF070108EE700008240000200B
:1034C000B8F1000F04D1DFF8C4A03148009002E049
:1034D000AB20BDE8F88F4EF6EE61504601F0C1FC1E
:1034E0000546042D01D02846F3E7FFF713FE4946B1
:1034F0003846FFF756FE0646042E01D03046E8E770
:1035000000241CE0234830F81400B84215D02149AB
:1035100031F814002049FFF782FE8346BBF1010F0A
:103520000BD01C4931F814001B490988FFF739FEFC
:103530000646042E01D03046CBE7601C84B2102C26
:10354000E0DB009801F08AFB0546042D01D02846F7
:10355000BFE70021504601F084FC0546042D01D050
:103560002846B6E72846B4E770B505460E4600245F
:1035700031462846FFF715FE0446802C04D131461B
:103580002846FFF774FF0446204670BD000401087A
:1035900000000108EE7000082400002031490143BA
:1035A000314A1160704770B5002100230F22C478A2
:1035B00004B32D4C246804F4E064C4F5E064210AEB
:1035C000C1F10403CA40447804FA03F1847814403A
:1035D00021430901254C0678A155047804F01F0504
:1035E0000124AC4005786D11AD0005F1E025C5F86A
:1035F000004109E0047804F01F050124AC401C4D93
:103600000678761145F8264070BD1A4A0A400243F2
:10361000154B1B1F1A60704739B1134A121D1268EF
:103620000243114B1B1D1A6006E00F4A121D12685F
:1036300082430D4B1B1D1A607047042808D14FF0C0
:10364000E021096941F004014FF0E022116107E037
:103650004FF0E021096921F004014FF0E0221161EF
:10366000704700000000FA050CED00E000E400E007
:1036700080E100E080FFFF1F10B50446CC48844283
:1036800008D10121042000F02DFB0021042000F0CE
:1036900029FB46E0C748844208D10121082000F0F8
:1036A00021FB0021082000F01DFB3AE0C2488442C3
:1036B00008D10121102000F015FB0021102000F09E
:1036C00011FB2EE0BD48844208D10121202000F0EA
:1036D00009FB0021202000F005FB22E0B8488442CD
:1036E00008D10121402000F0FDFA0021402000F027
:1036F000F9FA16E0B348844208D10121802000F095
:10370000F1FA0021802000F0EDFA0AE0AE48844290
:1037100007D10121801500F0E5FA0021A01500F085
:10372000E1FA10BD10B50121084600F0DBFA0021D6
:10373000012000F0D7FA10BD2DE9F0410246002526
:103740000026002000230024002791F803C00CF07D
:103750000F0591F803C00CF0100CBCF1000F03D062
:1037600091F802C04CEA050591F800C0BCF1000FC9
:1037700031D0146800202BE04FF0010C0CFA00F35C
:10378000B1F800C00CEA03069E4220D183004FF03E
:103790000F0C0CFA03F7BC4305FA03FC4CEA0404D3
:1037A00091F803C0BCF1280F06D14FF0010C0CFAC0
:1037B00000FCC2F814C00AE091F803C0BCF1480F45
:1037C00005D14FF0010C0CFA00FCC2F810C0401CEF
:1037D0000828D1D31460B1F800C0BCF1FF0F34DD6C
:1037E000546800202EE000F1080C4FF0010808FAA0
:1037F0000CF3B1F800C00CEA03069E4221D183000D
:103800004FF00F0C0CFA03F7BC4305FA03FC4CEA2B
:10381000040491F803C0BCF1280F05D100F1080C95
:1038200008FA0CF8C2F8148091F803C0BCF1480FF4
:1038300007D100F1080C4FF0010808FA0CF8C2F8A3
:103840001080401C0828CED35460BDE8F0814FF6AC
:10385000FF710180022181700421C170704702460E
:10386000002093680B400BB1012000E0002070475E
:103870000146886880B2704702460020D3680B403A
:103880000BB1012000E0002070470146C86880B2FB
:10389000704701617047416170470AB1016100E002
:1038A00041617047C16070474FF480320A438261C2
:1038B0008161826182698269704702460020434BC0
:1038C00018684FF68073184040EA021008433F4BD7
:1038D000186070473E49C8617047F0B50A4600233A
:1038E00000240021002500F00046B6F1004F02D16F
:1038F000364EF16901E0354E7168C0F3034583B27D
:1039000000F44016B6F5401F08D121F070612F4E2B
:10391000766826F070662D4F7E6012E000F4801607
:10392000B6F5801F06D1032606FA05F4A14341F03F
:10393000706106E0460D360103FA06F6B14341F028
:10394000706122B1460D360103FA06F6314300F0EC
:103950000046B6F1004F02D11C4EF16101E01B4E52
:103960007160F0BD30B500228B071C0F0F2303FAE6
:1039700004F2164B08338C1053F824309343134C45
:1039800008348D1044F8253023468C1053F8243029
:103990008C07240F00FA04F423430C4C08348D10D8
:1039A00044F8253030BD0A49DC310860704700001A
:1039B00000080140000C01400010014000140140CB
:1039C00000180140001C014000200140000001409F
:1039D00000002042DF48006840F00100DD49086037
:1039E00008464068DC490840DA49486008460068F3
:1039F000DA490840D74908600846006820F480206A
:103A000008600846406820F4FE0048604FF41F003C
:103A100088607047CF49096821F48031CD4A116030
:103A20001146096821F480211160B0F5803F03D070
:103A3000B0F5802F0ED106E0C649096841F4803107
:103A4000C44A116007E0C349096841F4A021C14A92
:103A5000116000E000BF00BF704710B501460022B2
:103A6000002300204A11012A02D1BA4C236806E043
:103A7000022A02D1B74C236A01E0B64C636A01F016
:103A80001F02012494401C400CB1012000E00020E2
:103A900010BD38B5002000900024002500BF312063
:103AA000FFF7DBFF05460098401C00900098B0F53A
:103AB000A06F01D0002DF2D03120FFF7CEFF08B16A
:103AC000012400E00024204638BD01460020A14A20
:103AD000106820F0F80040EAC10010607047A0496B
:103AE00008607047024600209A4B586820F47C100A
:103AF00042EA01031843974B58607047984908669B
:103B0000704701460020934A506820F003000843A4
:103B1000506070478F48406800F00C0070470146C5
:103B200000208C4A506820F0F00008435060704735
:103B300001460020874A506820F4E0600843506046
:103B4000704701460020834A506820F4605040EAE4
:103B5000C1005060704729B17E4A527A02437D4BC2
:103B60005A7204E07B4A527A82437A4B5A72704707
:103B70007B49D8310860704701460020754A50687B
:103B800020F440400843506070470021714A2032C1
:103B90001170704A82F82010012802D004280AD13E
:103BA00004E001216B4A2032117005E00521694AC9
:103BB0002032117000E000BF00BF70476949086003
:103BC00070476449096A0143624A11627047654956
:103BD00044390860704730B50021002200240023DA
:103BE0005C4D6D6805F00C0121B1042905D0082950
:103BF00023D105E05C4D056022E05B4D05601FE0D0
:103C0000544D6D6805F47012524D6D6805F48034A2
:103C1000022505EB92421CB9544D554305600BE05B
:103C20004C4D6D6805F400351DB1504D5543056090
:103C300002E04D4D5543056002E04B4D056000BF6D
:103C400000BF444D6D6805F0F0010909484D6B5CFB
:103C50000568DD4045603F4D6D6805F4E061090A87
:103C6000434D6B5C4568DD4085603A4D6D6805F4F9
:103C70006051C90A3E4D6B5C4568DD40C560354DFD
:103C80006D6805F44041890B3A4D6B5CC568B5FB26
:103C9000F3F5056130BD29B12E4A526902432D4B1F
:103CA0005A6104E02B4A526982432A4B5A61704799
:103CB00029B1284A92690243264B9A6104E0254AB9
:103CC00092698243234B9A61704729B1214AD26994
:103CD0000243204BDA6104E01E4AD26982431D4B45
:103CE000DA61704729B11B4AD2680243194BDA6086
:103CF00004E0184AD2688243164BDA60704729B153
:103D0000144A12690243134B1A6104E0114A126902
:103D10008243104B1A61704712494039086070475E
:103D20000F49C86470470B49C87170470948406A19
:103D300040F0807007494862704701460020054AFC
:103D400092680A400AB1012000E000207047014952
:103D500088727047001002400000FFF8FFFFF6FE77
:103D6000000042428004424200127A0000093D00F5
:103D70002C0000203C00002010B50446FE48844280
:103D800008D10121C014FFF7ADFF0021E014FFF7B7
:103D9000A9FFC4E0B4F1804F08D101210846FFF724
:103DA000AEFF00210120FFF7AAFFB8E0F3488442EC
:103DB00008D101210220FFF7A2FF00210220FFF716
:103DC0009EFFACE0EE48844208D101210420FFF7B9
:103DD00096FF00210420FFF792FFA0E0E94884420B
:103DE00008D101210820FFF78AFF00210820FFF7F2
:103DF00086FF94E0E448844208D101211020FFF7B7
:103E00007EFF00211020FFF77AFF88E0DF48844220
:103E100008D101212020FFF772FF00212020FFF7A9
:103E20006EFF7CE0DA48844208D101214014FFF79C
:103E300059FF00216014FFF755FF70E0D548844218
:103E400009D10121C804FFF74DFF00214FF40020E4
:103E5000FFF748FF63E0D048844209D101210805FB
:103E6000FFF740FF00214FF48010FFF73BFF56E0C3
:103E7000CA48844209D101214805FFF733FF0021D8
:103E80004FF40010FFF72EFF49E0C548844208D1E7
:103E900001214020FFF733FF00214020FFF72FFFD3
:103EA0003DE0C048844208D101218020FFF727FF70
:103EB00000218020FFF723FF31E0BB48844208D176
:103EC00001218015FFF71BFF0021A015FFF717FF49
:103ED00025E0B648844209D101210804FFF702FF1A
:103EE00000214FF48030FFF7FDFE18E0B048844217
:103EF00009D101214804FFF7F5FE00214FF40030FD
:103F0000FFF7F0FE0BE0AB48844208D101218804A2
:103F1000FFF7E8FE00214FF48020FFF7E3FE10BD1D
:103F200000220288944B98420ED0994B98420BD0B5
:103F3000B0F1804F08D0914B984205D0904B9842F9
:103F400002D0904B984204D14FF68F731A404B88A1
:103F50001A438D4B984207D08C4B984204D04FF6B1
:103F6000FF431A40CB881A4302808B8883850B88D5
:103F70000385814B98420BD0854B984208D08B4BE0
:103F8000984205D08A4B984202D08A4B984201D180
:103F90000B7A038601238382704770B500240022C8
:103FA0000023058C4FF6FE7635400584028C83880D
:103FB000048B4FF68F752C40B51E2C400D882C437A
:103FC000751E2A400D892A434D882A436A4DA8420E
:103FD0000BD06F4DA84208D0744DA84205D0744D47
:103FE000A84202D0734DA84213D14FF6F7752A406C
:103FF0004D892A434FF6FB752A408D882A434FF698
:10400000FF652B404FF6FF552B408D892B43CD8903
:104010002B4383800483CD888586028470BD70B570
:10402000002400220023058C4FF6EF7635400584EE
:10403000028C8388048B48F6FF752C404FF6FF45B1
:104040002C400D884FF6FF7606EA05252C434FF6E7
:10405000DF752A400D8906EA05152A434D8806EAD0
:1040600005152A43444DA84202D0494DA8421DD10E
:104070004FF67F752A404D894FF6FF7606EA051503
:104080002A434FF6BF752A408D8806EA05152A4354
:104090004FF6FF352B404FF2FF752B408D8906EA16
:1040A00085052B43CD8906EA85052B438380048350
:1040B000CD880587028470BD70B5002400220023DE
:1040C000058C4FF6FF6635400584028C8388848B0F
:1040D0004FF68F752C404FF6FC752C400D882C4305
:1040E0004FF6FF552A400D894FF6FF7606EA052563
:1040F0002A434D8806EA05252A431F4DA84202D0CF
:10410000234DA8421DD14FF2FF752A404D894FF62D
:10411000FF7606EA05252A434FF6FF352A408D88AB
:1041200006EA05252A434EF6FF752B404DF6FF752E
:104130002B408D8906EA05152B43CD8906EA051526
:104140002B4383808483CD888587028470BD70B5BE
:10415000002200230024058C4EF6FF7635400584AE
:10416000038C8488828B48F6FF752A404FF6FF4502
:104170002A400D8820E00000002C0140000400408F
:1041800000080040000C00400010004000140040F7
:1041900000340140004C01400050014000540140F7
:1041A00000180040001C004000200040004001407A
:1041B00000440140004801404FF6FF7606EA05251D
:1041C0002A434DF6FF752B400D8906EA05352B4332
:1041D0004D8806EA05352B43FA4DA84202D0FA4D28
:1041E000A84208D14BF6FF752C408D894FF6FF761B
:1041F00006EA85152C4384808283CD88A0F8405040
:10420000038470BD828B4FF2FF331A408283828B0E
:104210004FF6FF7303EA01231A4382837047F0B518
:104220000C461546002200210026078C4EF6FF7C26
:1042300007EA0C070784828B018C4FF6FF7707EAA9
:10424000043640F6FF473A404FF6FF7707EA052766
:104250003A434FF6FF7707EA03373A43D94FB8425C
:104260000ED0D94FB8420BD0B0F1804F08D0D74F05
:10427000B84205D0D64FB84202D0D64FB84206D188
:104280004DF6FF77394046F48057394305E047F64D
:10429000FF57394044F48057394382830184F0BD8D
:1042A000828B4FF6F3731A408283828B0A43828398
:1042B0007047F0B50C461546002200210026078CF9
:1042C0004FF6FF6C07EA0C070784828B018C4FF6D0
:1042D000FF7707EA04264FF60C773A404FF6FF7750
:1042E00007EA03172F433A43B64FB8420ED0B64FF2
:1042F000B8420BD0B0F1804F08D0B44FB84205D0CF
:10430000B34FB84202D0B34FB84206D14FF6FF5771
:10431000394046F48077394305E04FF2FF57394082
:1043200044F48077394382830184F0BD028B4FF2DD
:10433000FF331A400283028B4FF6FF7303EA012317
:104340001A4302837047F0B50C461546002200213F
:104350000026078C4FF6EF7C07EA0C070784028BD8
:10436000018C4FF6FF7707EA041640F6FF473A4004
:104370004FF6FF7707EA03373A434FF6FF7707EA2E
:1043800005273A438F4FB8420ED08F4FB8420BD01B
:10439000B0F1804F08D08D4FB84205D08C4FB84255
:1043A00002D08C4FB84206D14FF6DF77394046F045
:1043B0001007394305E04FF65F77394044F01007A6
:1043C000394302830184F0BD028B4FF6F3731A4028
:1043D0000283028B0A4302837047F0B50C461546F0
:1043E00000220021068C4FF6FE773E400684028BA9
:1043F000018C4FF60C7632407E1C06EA03162E43E3
:104400003243704EB0420ED06F4EB0420BD0B0F17E
:10441000804F08D06D4EB04205D06D4EB04202D0F4
:104420006C4EB04206D14FF6FD76314044F00106A5
:10443000314305E04FF6F576314044F00106314353
:1044400002830184F0BD70B505460C465D48854287
:104450000ED05D4885420BD0B5F1804F08D05B4847
:10446000854205D05A48854202D05A48854200D13B
:1044700000E000BF208850B92389A28861882846BF
:10448000FFF7ABFFE1882846FFF79EFF25E0208875
:1044900004280AD12389A28861882846FFF753FFA0
:1044A000E1882846FFF742FF17E0208808280AD154
:1044B0002389A28861882846FFF7FBFEE188284609
:1044C000FFF7EEFE09E02389A28861882846FFF7FE
:1044D000A6FEE1882846FFF795FE70BD2DE9F04164
:1044E00005460C4600260127608808B9022600E030
:1044F0000026A088012801D1022700E0012720889A
:10450000A0B92389A28861882846FFF766FFE18861
:104510002846FFF759FF23893A4631462846FFF7D8
:1045200012FFE1882846FFF701FF13E02389A288E4
:1045300061882846FFF707FFE1882846FFF7F6FE67
:1045400023893A4631462846FFF747FFE188284647
:10455000FFF73AFFBDE8F0810A884B881A438B8841
:104560001A43CB881A430B891A434B891A438B8908
:104570001A43A0F8442070474FF6FF718180002154
:104580000180C1804180017270470021018041801B
:104590008180C180018141818181C1817047002179
:1045A00001804180012181800021C180018170470B
:1045B0000021018041808180C18001814181818110
:1045C00070470000002C014000340140000400400E
:1045D00000080040000C004021B1028842F00102B6
:1045E000028004E002884FF6FE731A400280704792
:1045F00031B1B0F8442042F40042A0F8442005E074
:10460000B0F84420C2F30E02A0F8442070471AB15B
:1046100083890B43838102E083898B4383817047C5
:104620008182704741EA0203A0F8483070471AB10E
:1046300083890B43838102E083898B4383817047A5
:1046400001894FF6F8721140018170470A46002136
:1046500001894FF68F73194011430181704730B5BE
:1046600004460D4629462046FFF7F0FF208940F01A
:104670000700208130BD2DE9F04104460D46164665
:104680001F46602D06D13B46012231462046FFF7EA
:104690005AFE05E03B46012231462046FFF79DFECB
:1046A00029462046FFF7D2FF208940F007002081ED
:1046B000BDE8F08130B50C4600210189C9B24FF642
:1046C000FF7505EA0325154325432943018130BDC4
:1046D0002DE9F04105460E4617469846002443460C
:1046E0003A4631462846FFF7E5FF2C894FF6F87029
:1046F000044044F007044FF68F70044044F0700407
:104700002C81BDE8F081F0B504460D4616461F46E3
:104710003B46324629462046FFF7CCFF208940F42D
:1047200080402081F0BD0185828270470A460021C9
:1047300001884FF68F731940114301807047F0B51F
:104740000C4615461E460021002200230189028BDB
:10475000038C4FF6F877394021434FF6FC473A4037
:1047600040F201173A434FF6DD773B404FF6FF77B3
:1047700007EA06172F433B43018102830384F0BD00
:104780000A460021018B4FF68F73194011430183B4
:1047900070470A460021018B48F6FF7319404FF617
:1047A000FF7303EA02231943018370470A4600217D
:1047B000818B4FF68F7319401143818370470A46EE
:1047C0000021818B48F6FF7319404FF6FF7303EA0F
:1047D000022319438183704721B1028842F080028D
:1047E000028004E002884FF67F731A40028070470F
:1047F00021B1828842F00402828004E082884FF670
:10480000FB731A408280704721B1828842F008020F
:10481000828004E082884FF6F7731A4082807047E6
:1048200021B1828842F00102828004E082884FF642
:10483000FE731A40828070470A460021018B4FF6B2
:10484000F77319401143018370470A460021018B19
:104850004FF2FF7319404FF6FF7303EA0223194327
:10486000018370470A460021818B4FF6F773194088
:104870001143818370470A460021818B4FF2FF73F9
:1048800019404FF6FF7303EA0223194381837047EF
:104890000A460021018B4FF6FB7319401143018337
:1048A00070470A460021018B4FF6FF3319404FF63F
:1048B000FF7303EA02231943018370470A4600216C
:1048C000818B4FF6FB7319401143818370470A4671
:1048D0000021818B4FF6FF3319404FF6FF7303EA37
:1048E00002231943818370470A460021018B4FF64A
:1048F0007F7319401143018370470A460021018BE1
:10490000C1F30E014FF6FF7303EA0223194301833B
:1049100070470A460021818B4FF67F73194011437F
:10492000818370470A460021818BC1F30E014FF647
:10493000FF7303EA02231943818370470A4600216B
:10494000018C4FF6FD7319401143018470470A46EC
:104950000021018C4FF6F773194011430184704711
:104960000A460021018C4FF6DF7319404FF6FF73A2
:1049700003EA02131943018470470A460021018C9F
:104980004FF67F7319404FF6FF7303EA0213194382
:10499000018470470A460021018C4FF6FF531940ED
:1049A0004FF6FF7303EA02231943018470470A4656
:1049B0000021018C4FF2FF7319404FF6FF7303EA99
:1049C00002231943018470470A460021018C4DF6E9
:1049D000FF7319404FF6FF7303EA02331943018452
:1049E000704730B5002301248C40A3B2048C9C4353
:1049F0000484048C02FA01F5ADB22C43048430BD6A
:104A000030B5002304248C40A3B2048C9C4304845E
:104A1000048C02FA01F5ADB22C43048430BD70B5AC
:104A20000346002000241846183001258D40ACB202
:104A30001D8CA5431D8409B1082909D100EB610033
:104A4000056825F0700505600568154305600EE0F2
:104A50000D1FC5F34E052844056825F4E0450560A3
:104A600005684FF6FF7606EA02263543056070BDFD
:104A700021B1028842F00202028004E002884FF66F
:104A8000FD731A400280704721B1028842F004028F
:104A9000028004E002884FF6FB731A4002807047E0
:104AA00021B1828842F08002828004E082884FF641
:104AB0007F731A408280704702884FF6F7731A405E
:104AC000028002880A430280704782884FF68F7303
:104AD0001A40828082880A438280704702894FF69A
:104AE000F8731A40028102890A43028170470289E1
:104AF0004FF67F731A40028102890A430281704790
:104B0000818470478185704781867047018770472F
:104B100081877047A0F84010704702884FF6FF4326
:104B20001A40028002880A43028070470146888E3C
:104B300070470146088F70470146888F70470146CD
:104B4000B1F8400070470146888C70470146088DD7
:104B5000704702460020138A0B400BB1012000E091
:104B600000207047CA430282704730B502460020D9
:104B700000230024158A05EA0103958905EA01044A
:104B800013B10CB1012000E0002030BDCA43028205
:104B90007047000001460020FE4A106800F038000F
:104BA000084310607047FB49096821F00801F94A81
:104BB000116011460968014311607047F5490968A1
:104BC00021F01001F34A1160114609680143116098
:104BD0007047F148EF494860F04848607047EE4838
:104BE000EC494860ED4848607047EA48006940F089
:104BF0008000E84908617047E648006940F080009D
:104C0000E449086170470420E249C96801F00101E4
:104C100009B101200EE0DF49C96801F0040109B1C2
:104C2000022007E0DB49C96801F0100109B1032047
:104C300000E00420704700B502460423FFF7E3FFBD
:104C4000034603E0FFF7DFFF0346521E012B01D1AD
:104C5000002AF7D102B90523184600BD30B5044635
:104C600004254FF43020FFF7E6FF0546042D17D149
:104C7000C848006940F00200C6490861084644611E
:104C8000006940F0400008614FF43020FFF7D3FF87
:104C90000546C048006941F6FD710840BD490861FC
:104CA000284630BD10B504244FF43020FFF7C3FF71
:104CB0000446042C16D1B748006940F00400B549F9
:104CC00008610846006940F0400008614FF4302058
:104CD000FFF7B1FF0446AF48006941F6FB71084099
:104CE000AC490861204610BD00B502460423FFF719
:104CF0008AFF034603E0FFF786FF0346521E012B9F
:104D000001D1002AF7D102B90523184600BD10B51C
:104D100004244FF43020FFF7E7FF0446042C16D19B
:104D20009C48006940F004009A49086108460069FF
:104D300040F0400008614FF43020FFF7D5FF0446F3
:104D40009448006941F6FB71084092490861204689
:104D500010BD00208F49C96901F0020109B101208D
:104D600000E00020704730B5A5250424FFF7F1FFCF
:104D700000B100254FF43020FFF75DFF0446042CFE
:104D80003AD185488349886084488860084600692C
:104D900040F0200008610846006940F040000861CA
:104DA0004FF43020FFF747FF0446042C1BD179480D
:104DB000006941F6DF7108407649086108460069DC
:104DC00040F01000086176480580E002FFF733FFED
:104DD0000446052C10D06F48006941F6EF71084079
:104DE0006C49086108E0052C06D06A48006941F664
:104DF000EF71084067490861204630BD78B5064626
:104E00000C46042500200090E802FFF714FF054639
:104E1000042D24D15F48006940F001005D4908611C
:104E20003480E802FFF707FF0546042D10D1B01CBF
:104E30000090200C00990880E802FFF7FCFE054670
:104E40005448006941F6FE7108405249086106E085
:104E50005048006941F6FE7108404E4908612846F5
:104E600078BD70B504460D460426F002FFF7E3FE58
:104E70000646042E11D14748006940F0010045491B
:104E800008612580F002FFF7D6FE0646414800691A
:104E900041F6FE7108403F490861304670BD70B56B
:104EA00005460E460424E002FFF7C5FE0446042C26
:104EB00017D1394837498860384888600846006902
:104EC00040F0100008612E80E002FFF7B4FE0446B7
:104ED000052C06D02F48006941F6EF7108402D4996
:104EE0000861204670BD2DE9F04304464FF6FF7679
:104EF0003746B046B1460425E443E6B2C4F307277B
:104F0000C4F307484FEA1469E802FFF794FE054628
:104F1000042D49D120481F498860204888600846F0
:104F2000006940F010000861FF2E06D01C480830D0
:104F30000680E802FFF77FFE0546042D08D1FF2F0B
:104F400006D017480A300780E802FFF774FE0546CE
:104F5000042D0AD1B8F1FF0F07D011480C30A0F88A
:104F60000080E802FFF767FE0546042D0AD1B9F17B
:104F7000FF0F07D00A480E30A0F80090E802FFF7B4
:104F80005AFE0546052D0FD00248006941F6EF7123
:104F9000084007E00020024023016745AB89EFCDC0
:104FA00000F8FF1F664908612846BDE8F08330B568
:104FB000054604244FF43020FFF73DFE0446042C40
:104FC00041D160485E4988605F4888600846006952
:104FD00040F0200008610846006940F04000086188
:104FE0004FF43020FFF727FE0446042C22D154480A
:104FF000006941F6DF7108405149086108460069BF
:1050000040F0100008611DB100205049088002E006
:10501000A5204E4908804FF43020FFF70CFE0446CF
:10502000052C10D04648006941F6EF71084044490C
:10503000086108E0052C06D04148006941F6DF719F
:1050400008403F490861204630BDF0B505460E4690
:10505000174604243B483A4988603B488860E00290
:10506000FFF7E9FD0446042C19D13548006940F0EA
:1050700010003349086147F0F800304328433349B2
:10508000891C0880E002FFF7D6FD0446052C06D0F7
:105090002B48006941F6EF71084029490861204614
:1050A000F0BD2748C069800870472548006A7047EE
:1050B00000202349096801F0200109B1012000E026
:1050C0000020704729B11E4A126902431C4B1A6125
:1050D00004E01B4A12698243194B1A61704701466A
:1050E0000020012908D1164AD26902F001020AB152
:1050F000012008E0002006E0114AD2680A400AB107
:10510000012000E0002070470D49C860704704206E
:105110000B49C96801F0010109B101200EE00849FD
:10512000C96801F0040109B1022007E00449C96817
:1051300001F0100109B1032000E0042070470000D5
:105140000020024023016745AB89EFCD00F8FF1F27
:105150000CB50020019000906C48006840F480304D
:105160006A49086000BF6948006800F40030009098
:105170000198401C0190009818B90198B0F5A06FF3
:10518000F1D16248006800F4003010B101200090B5
:1051900001E0002000900098012843D15C4800689D
:1051A00040F010005A4908600846006820F00300EB
:1051B00008600846006840F00200086053484068F4
:1051C000524948600846406848600846406840F4D4
:1051D000806048600846406820F47C1048600846BB
:1051E000406840F4E81048600846006840F080706D
:1051F000086000BF4548006800F000700028F9D042
:105200004248406820F00300404948600846406832
:1052100040F00200486000BF3C48406800F00C00CD
:105220000828F9D10CBD10B5FFF792FF10BD10B5DD
:105230003648006840F0010034490860084640687C
:1052400034490840314948600846006832490840FE
:105250002E4908600846006820F48020086008464F
:10526000406820F4FE0048604FF41F008860FFF79C
:10527000DAFF4FF000602949086010BD10B5002129
:1052800000200022214B5B6803F00C0121B10429AE
:1052900006D0082928D107E0214B224C236027E0C3
:1052A0001F4B204C236023E0184B5B6803F4701005
:1052B000164B5B6803F48032022303EB904022B963
:1052C000194B4343174C23600DE0104B5B6803F40C
:1052D000003323B1144B4343124C236003E0104BC3
:1052E0004343104C236003E00D4B0E4C236000BF82
:1052F00000BF064B5B68C3F303130C4CE15C094B26
:105300001B68CB40074C236010BD0000001002401A
:10531000002002400000FFF8FFFFF6FE08ED00E06D
:1053200000127A004000002000093D0044000020E7
:105330000948804709480047FEE7FEE7FEE7FEE729
:10534000FEE7FEE7FEE7FEE7FEE7FEE70448054965
:10535000054A064B704700002F520008ED00000878
:1053600030040020300A00203006002030060020E3
:1053700010B50446BE48844208D101218014FEF7CE
:10538000B1FC0021A014FEF7ADFC16E0B948844240
:1053900008D101210014FEF7B2FC00212014FEF711
:1053A000AEFC0AE0B448844207D10121C013FEF7E5
:1053B000A6FC0021E013FEF7A2FC10BD10B50022F0
:1053C000028802F441520B884C8823438C88234383
:1053D000CC8823430C8923434C8923438C89234362
:1053E000CC8923431A430280838B4FF2FF742340FE
:1053F00083830B8A038210BD2DE9F04F85B00546EB
:105400000C464FF0000902274FF000084FF0010B47
:105410000026B246A88B4FF240010840A883022024
:105420002884B5F81C90A068022801D100BF38E09C
:10543000A08810B94FF0010B01E04FF0020B8D482E
:10544000854200D100E000BF6846FEF7C4FBDDF8EE
:1054500000A0E088B0F5007F0AD14FEA1A2000EBE7
:1054600080004000A168B0FBF1F0401D86B20BE067
:105470004FEA4B10BAFBF0F000EB80004000A1684F
:10548000B0FBF1F0401D86B20A20B6FBF0F606F044
:105490000108A6EB0800C0F34F074FF6FF7000EAC3
:1054A0000828022F01DBFF2F02DD02274FF0000842
:1054B000E08840EA080038432884A088A18908438E
:1054C000618808432188084340F4006040EA0909E4
:1054D000A5F81C9005B0BDE8F08F00210180418047
:1054E0008180C180018141818181C1810721018247
:1054F00070470021018041808180C180022181604C
:1055000000218181704721B1028842F0400202806F
:1055100004E002884FF6BF731A400280704721B141
:10552000828B42F48062828304E0828B4FF6FF33E9
:105530001A408283704730B5002400230C110125E6
:10554000A540ABB21AB185881D43858002E08588ED
:105550009D43858030BD1AB183880B43838002E070
:1055600083888B4383807047818170470146888997
:1055700070474FF6FF62914204D0028842F4807275
:10558000028004E002884FF6FF631A4002807047F1
:1055900021B1828842F00402828004E082884FF6C2
:1055A000FB731A408280704702884FF2FF731A40E3
:1055B000028002880A4302807047018841F48051CA
:1055C0000180704721B1028842F40052028004E059
:1055D00002884DF6FF731A40028070470246002091
:1055E000012901D0108B00E0908A70470146088A9B
:1055F0007047B1F5804F04D1028842F480420280A6
:1056000004E002884BF6FF731A400280704702469E
:10561000002013890B400BB1012000E000207047EF
:10562000CA4302817047F0B50246002000240023DF
:10563000002501F00F070126BE40B4B20B11012670
:105640009E40B3B2968806EA03051689264016B135
:105650000DB1012000E00020F0BD10B5002201F0E6
:105660000F040123A3409AB2D343038110BD00006D
:105670000030014000380040003C00407047704757
:105680007047000070B5064C7C44064D7D4403E035
:10569000206820448047241DAC42F9D170BD000031
:1056A000C41A0000D81A000010B500F009F800680C
:1056B00010BD10B5044600F003F8046010BD0000F2
:1056C00000487047D003002000487047D0030020F6
:1056D0007546FFF7F9FFAE4605006946534620F0D0
:1056E0000700854618B020B5FFF730FEBDE8204022
:1056F0004FF000064FF000074FF000084FF0000B8E
:1057000021F00701AC46ACE8C009ACE8C009ACE840
:10571000C009ACE8C0098D4670470446AFF300806D
:105720002046FAF72CFD000001491820ABBEFEE729
:1057300026000200704710B5029C018042808380E1
:10574000846010BD002181804180018081607047AC
:105750004100080218BF04200A0E18BF40F00100E3
:105760004FF07F4232EA010108BF40F002000128F9
:1057700008BF05207047014621F00040C0F1FF40FE
:10578000C00F70472DE9F0411C4617460E008046B9
:1057900007D0054602E02846B0473D442046641E37
:1057A000F9D24046BDE8F081016809B10020704798
:1057B00001210160084670476FF05E01080701F0A3
:1057C00054BC00002DE9F04D0E4614464FF07F41C9
:1057D000B1EB440F9EBF4FF0FF313160BDE8F08D5B
:1057E0004FF0004040EA0421C4F3C7507838431119
:1057F00000F01F00DFF814C1C0F12002FC445CF887
:1058000023500CEB83038540D3F804C02CFA02F735
:105810002F439D680CFA00FC25FA02F8DB6805FAB4
:1058200000F023FA02F240EA02054CEA080CA7FB5A
:105830000132ACFB01C0A5FB015101EB0C058D420F
:1058400034BF4FF0010C4FF0000CC1186144BCF1A3
:10585000000F02D0814202D903E0814201D201202F
:1058600000E00020104400F120024FEA9218800668
:10587000CA0C40EA42304F03C6F8008001F02EF90E
:105880008246384601F042F96FF0120101F0EDFB5B
:105890000746284601F03AF96FF0250101F0E5FBD3
:1058A00083463946504600F0C7FF594600F0C4FF12
:1058B00000F500656FF30B055146284601F02EFBFD
:1058C000394601F02BFB594601F096FA104901F0D8
:1058D00065F907460F49284601F060F9394600F09E
:1058E000ABFF07460C49284601F058F9394600F04D
:1058F000A3FF14F0004F08BFBDE8F08DC8F1805140
:1059000080F000403160BDE8F08D0000101900000B
:10591000DB0FC92F22AAFD290000C92F2DE9F04174
:1059200004464FF00E4000EB4400B0F1506F2046AB
:1059300055D84FF0FC41B1EB440F1CD224F000408D
:105940004FF07E5101F058FA4FF0FF3101F08DFB1E
:10595000074600F02DFB14F0004F1DBF304E314DB7
:1059600080F00040304E08BF304D4FF0404101F014
:1059700015F9044605E000263546014601F00EF90A
:1059800007462B49384601F009F92A4900F054FF2F
:10599000394601F003F9284900F04EFF394601F07D
:1059A000FDF8264900F048FF394601F0F7F8244990
:1059B00000F042FF80463946204601F0EFF84146AC
:1059C00001F0ECF807462946204600F035FF39463D
:1059D00000F032FF3146BDE8F04100F02DBF4FF03E
:1059E000E441B1EB440F08D9FFF7B2FE042808BF29
:1059F000FFF7E2FE2046BDE8F0814FF07F41B1EBBA
:105A0000440F04D2BDE8F041012101F02EBB01207A
:105A1000FFF74FFEBDE8F0410021084600F080BFCF
:105A20000000C9BF22AAFDB90000C93F22AAFD3962
:105A300024FE1C3DC78AD83C1E67383D1B93993D08
:105A4000AFAA2A3E2DE9F0474FF0684202EB40032F
:105A50000C460546B3F1654F3CBF02EB4102B2F183
:105A6000654F7CD2C0F3C753C1F3C7529A1A1B2AA1
:105A700006DD10F0004F14BF76487748BDE8F08788
:105A800012F11A0F17DA11F0004F06D010F0004F84
:105A90000CBF72487248BDE8F0872146284600F0E6
:105AA0003FFF0446FFF754FE042808BFFFF784FEBB
:105AB0002046BDE8F0874200B2EB410F25D910F037
:105AC000004F19BF674F684E684F694E224685F0F8
:105AD000004415460A4680F0004110460A1A52005A
