:020000040800F2
:1000000040100020A1890008295E0008AB89000883
:100010002B5E00082F5E0008335E00080000000021
:10002000000000000000000000000000375E000833
:10003000395E000800000000B78900083B5E000838
:10004000BB890008BB890008BB890008BB89000880
:10005000BB890008BB890008BB890008BB89000870
:10006000BB890008BB890008BB890008BB89000860
:10007000BB890008BB890008BB890008BB89000850
:10008000BB890008BB890008BB890008BB89000840
:10009000BB890008BB890008BB890008BB89000830
:1000A000BB890008BB890008BB890008BB89000820
:1000B000BB890008BB890008BB890008BB89000810
:1000C000BB890008BB890008BB890008BB89000800
:1000D000BB890008435E0008BB890008455E000834
:1000E000BB890008BB890008BB89000800F002F842
:1000F00000F03CF80AA090E8000C82448344AAF186
:100100000107DA4501D100F031F8AFF2090EBAE883
:100110000F0013F0010F18BFFB1A43F0010318473B
:1001200080AF0000A0AF0000103A24BF78C878C1AB
:10013000FAD8520724BF30C830C144BF04680C60ED
:10014000704700000023002400250026103A28BF35
:1001500078C1FBD8520728BF30C148BF0B60704739
:100160001FB508F041FC1FBD10B510BD08F062FCC2
:100170001146FFF7F5FF00F009F808F080FC03B422
:10018000FFF7F2FF03BC08F081FC000004F03FF829
:10019000064803F039F8064801F017FE054802F05A
:1001A000BFF901E003F05CFBFCE700004A0000201F
:1001B000200200200C0500200122C272704710B5F9
:1001C0000446607B00B338480078401C364908700C
:1001D00008460078012804D0052809D00A2812D141
:1001E0000DE0324804F0BEFD304804F0C3FD0AE0E3
:1001F0002E4804F0C7FD2D4804F0CCFD03E000209C
:100200002949087000BF49E0607AE0B1207BD0B98D
:1002100025480078401C24490870084600780128C9
:1002200004D0142806D028280CD107E01F4804F079
:1002300099FD07E01D4804F0A5FD03E000201A49E0
:10024000087000BF2AE0607A10B3207B00B3184822
:100250000078401C1649087008460078012804D030
:10026000142809D0282812D10DE0104804F07AFD96
:100270000E4804F08FFD0AE00C4804F083FD0B48A3
:1002800004F078FD03E000200949087000BF05E094
:10029000064804F067FD054804F06CFD10BD00B58C
:1002A0000448FFF789FF00BD000000206C0000201B
:1002B00001000020C400002070B504460E4615461B
:1002C0002A4604F10F01FE4805F03AFA70BD2DE907
:1002D000F04104460D461646AA20E073AA21217477
:1002E000EF2161740221A174E574267500270020B6
:1002F00006E004F10F01095C3944CFB2411CC8B2D9
:100300000628F6DB6775082204F10F012046FFF787
:10031000D3FFBDE8F0812DE9F04F87B005460C46CC
:10032000164600270020069000BF04E0215C3944F7
:10033000CFB2411CC8B2711E8142F7DCA01910F87F
:10034000010CB84202D007B0BDE8F08F2078AA288F
:1003500002D16078AF2800D0F5E70021D94881723A
:10036000A078012811D12079012801D1D64908703F
:100370002079022802D10120D3494870207903282E
:1003800003D10120D04908704870A078022816D106
:100390002079012805D128716871A871E871287247
:1003A00068722079A02801D1012028702079A12825
:1003B00005D1C64801F0ACFAC54802F00CFEA078A1
:1003C00003287CD12079617941EA0020C149C880A5
:1003D000A079E17941EA0020BE498880207A617ADB
:1003E00041EA0020BB490880A07AE17A41EA002076
:1003F000B8494880207B617B41EA0020B5490881EB
:10040000A07BE17B41EA0020B2494881207C617CED
:1004100041EA0020AF498881A07CE17C41EA0020CC
:10042000AC49C8810698002861D008460088A0F22F
:10043000DC5908464088A0F2DC58A749886803F0D8
:10044000CAFA029008F01AFE824648460AF056FAA6
:10045000834651460AF0B2FA9F490490886803F037
:10046000BAFA019009F0DAF9834640460AF046FAF2
:10047000594602900AF0A2FA824698490AF0CCFB4B
:10048000039004990AF06AF805900AF017FA914966
:1004900008809149886803F09EFA029009F0BEF93D
:1004A000049048460AF02AFA039004990AF086FA62
:1004B00089490590886803F08EFA019000E016E003
:1004C00008F0DCFD039040460AF018FA0290039908
:1004D0000AF074FA814904900AF040F883460599BD
:1004E0000AF03CF882460AF0E9F97A494880A07897
:1004F00010287DD12179090209B2627941EA02000E
:100500000AF0FCF9824676490AF09CF86F490860C7
:10051000A179090209B2E27941EA02000AF0EEF992
:1005200082466F490AF08EF868494860217A0902CC
:1005300009B2627A41EA02000AF0E0F982466849AB
:100540000AF080F861498860A17A090209B2E27A6A
:1005500041EA02000AF0D2F9824661490AF072F8D3
:100560005A49C861217B090209B2627B41EA020053
:100570000AF0C4F982465A490AF064F853490862FD
:10058000A17B090209B2E27B41EA02000AF0B6F956
:10059000824653490AF056F84C494862217C0902C8
:1005A00009B2627C41EA02000AF0A8F982464C498D
:1005B0000AF048F845498863A17C090209B2E27C47
:1005C00041EA02000AF09AF9824645490AF03AF8EF
:1005D0003E49C863217D090209B2627D41EA0200F9
:1005E0000AF08CF982463E490AF02CF8374900E0BF
:1005F00005E00864A1783A462846FFF768FEA0782F
:1006000011286FD12179090209B2627941EA020009
:100610000AF074F9824632490AF014F82B49486509
:10062000A179090209B2E27941EA02000AF066F909
:1006300082462B490AF006F824498865217A090286
:1006400009B2627A41EA02000AF058F98246244966
:1006500009F0F8FF1D49C865A17A090209B2E27ADA
:1006600041EA02000AF04AF982461D4909F0EAFF10
:1006700016490867217B090209B2627B41EA020040
:100680000AF03CF98246164909F0DCFF0F49486739
:10069000A17B090209B2E27B41EA02000AF02EF9CD
:1006A00082460F4909F0CEFF08498867217C09027C
:1006B00009B2627C41EA02000AF020F9824612E0A7
:1006C000AC060020C40000202C06002018010020E9
:1006D0004A000020E0050020200200200080BB44EA
:1006E00000007A4428E0FE4909F0ACFFFD49C1F85A
:1006F0008C00A17C090209B2E27C41EA02000AF006
:10070000FDF88246F64909F09DFFF649C1F89000D0
:10071000217D090209B2627D41EA02000AF0EEF889
:100720008246EF4909F08EFFEE49C1F89400A178A6
:100730003A462846FFF7CBFDA078122834D121791C
:10074000090209B2627941EA02000AF0D7F882464A
:10075000E34909F077FFE349C1F8A800A17909024C
:1007600009B2E27941EA02000AF0C8F88246DC499F
:1007700009F068FFDB49C1F8AC00217A090209B22F
:10078000627A41EA02000AF0B9F88246D44909F0D7
:1007900059FFD449C1F8B000A1783A462846FFF77E
:1007A00096FDD14802F017FCA078132804D1A17857
:1007B0003A462846FFF78BFDA078142804D1A1788B
:1007C0003A462846FFF783FDA078152804D1A17882
:1007D0003A462846FFF77BFD00BFB4E510B5044656
:1007E000C24805F02AF810BD2DE9FC5F04460E460C
:1007F00017469846DDE90CAB0025AA2229466D1C58
:1008000004F10F00425429466D1C425406F10F00BA
:10081000C2B229466D1C04F10F0042540022294641
:100820006D1C4254AE4938460AF0C8F8009009F0F1
:10083000FFFF00B201909DF8052029466D1C04F1D0
:100840000F0042549DF8042029466D1C4254A449CF
:1008500040460AF0B3F8009009F0EAFF00B20190B8
:100860009DF8052029466D1C04F10F0042549DF8A7
:1008700004202846691CCDB204F10F010A5498499E
:1008800050460AF09BF8009009F0D2FF00B20190A8
:100890009DF805202846691CCDB204F10F010A54C9
:1008A0009DF804202846691CCDB204F10F010A54BA
:1008B0008B4958460AF082F8009009F0B9FF00B25F
:1008C00001909DF805202846691CCDB204F10F0166
:1008D0000A549DF804202846691CCDB204F10F018A
:1008E0000A547F490E980AF069F8009009F0A0FFB9
:1008F00000B201909DF805202846691CCDB204F194
:100900000F010A549DF804202846691CCDB204F159
:100910000F010A5472490F980AF050F8009009F03C
:1009200087FF00B201909DF805202846691CCDB2D2
:1009300004F10F010A549DF804202846691CCDB229
:1009400004F10F010A54664910980AF037F8009034
:1009500009F06EFF00B201909DF805202846691C41
:10096000CDB204F10F010A549DF804202846691CF9
:10097000CDB204F10F010A54594911980AF01EF83A
:10098000009009F055FF00B201909DF8052028461F
:10099000691CCDB204F10F010A549DF804202846C9
:1009A000691CCDB204F10F010A544D4912980AF0A6
:1009B00005F8009009F03CFF00B201909DF8052079
:1009C0002846691CCDB204F10F010A549DF8042099
:1009D0002846691CCDB204F10F010A54281FA074E7
:1009E0004FF00009002007E004F10F01095C4944C1
:1009F00001F0FF09411CC8B2A842F5DB2846691C7A
:100A0000CDB204F10F0101F800902A462046FFF70D
:100A100053FCBDE8FC9F2DE9F84304460E461746FB
:100A20000025AA2229466D1C04F10F0042542946D4
:100A30006D1C4254052229466D1C42540022294651
:100A40006D1C425400969DF8012029466D1C4254AD
:100A50009DF8002029466D1C425400979DF8012006
:100A600029466D1C42549DF800202846691CCDB2D1
:100A700004F10F010A54281FA0744FF00008002051
:100A800007E004F10F01095C414401F0FF08411C3B
:100A9000C8B2A842F5DB2846691CCDB204F10F01AB
:100AA00001F800802A462046FFF706FCBDE8F883DF
:100AB0007FB504460025AA2229466D1C04F10F00CB
:100AC000425429466D1C4254062229466D1C42544C
:100AD000002229466D1C42549DF80520294607E056
:100AE00000007A44180100204A000020AC060020D3
:100AF0006D1C42549DF8042029466D1C42549DF8FB
:100B0000092029466D1C42549DF808202846691C7E
:100B1000CDB204F10F010A549DF80D202846691C3E
:100B2000CDB204F10F010A549DF80C202846691C2F
:100B3000CDB204F10F010A549DF821202846691C0A
:100B4000CDB204F10F010A549DF820202846691CFB
:100B5000CDB204F10F010A549DF825202846691CE6
:100B6000CDB204F10F010A549DF824202846691CD7
:100B7000CDB204F10F010A549DF829202846691CC2
:100B8000CDB204F10F010A549DF828202846691CB3
:100B9000CDB204F10F010A549DF82D202846691C9E
:100BA000CDB204F10F010A549DF82C202846691C8F
:100BB000CDB204F10F010A549DF831202846691C7A
:100BC000CDB204F10F010A549DF830202846691C6B
:100BD000CDB204F10F010A54281FA0740026002092
:100BE00006E004F10F01095C3144CEB2411CC8B2E9
:100BF000A842F6DB2846691CCDB204F10F010E5461
:100C00002A462046FFF758FB7FBD7FB504460025E6
:100C1000AA2229466D1C04F10F00425429466D1C7E
:100C20004254032229466D1C4254002229466D1C61
:100C300042549DF8052029466D1C42549DF804201D
:100C400029466D1C42549DF8092029466D1C4254CA
:100C50009DF808202846691CCDB204F10F010A5402
:100C60009DF80D202846691CCDB204F10F010A54ED
:100C70009DF80C202846691CCDB204F10F010A54DE
:100C80009DF821202846691CCDB204F10F010A54B9
:100C90009DF820202846691CCDB204F10F010A54AA
:100CA0009DF825202846691CCDB204F10F010A5495
:100CB0009DF824202846691CCDB204F10F010A5486
:100CC0009DF829202846691CCDB204F10F010A5471
:100CD0009DF828202846691CCDB204F10F010A5462
:100CE0009DF82D202846691CCDB204F10F010A544D
:100CF0009DF82C202846691CCDB204F10F010A543E
:100D00009DF831202846691CCDB204F10F010A5428
:100D10009DF830202846691CCDB204F10F010A5419
:100D20009DF835202846691CCDB204F10F010A5404
:100D30009DF834202846691CCDB204F10F010A54F5
:100D40009DF839202846691CCDB204F10F010A54E0
:100D50009DF838202846691CCDB204F10F010A54D1
:100D6000281FA0740026002006E004F10F01095C92
:100D70003144CEB2411CC8B2A842F6DB2846691CF9
:100D8000CDB204F10F010E542A462046FFF794FA23
:100D90007FBD2DE9F84304460E4617460025AA22DA
:100DA00029466D1C04F10F00425429466D1C425423
:100DB000072229466D1C4254002229466D1C4254CC
:100DC00000969DF8032029466D1C42549DF8022090
:100DD00029466D1C42549DF8012029466D1C425441
:100DE0009DF800202846691CCDB204F10F010A5479
:100DF00000979DF801202846691CCDB204F10F012F
:100E00000A549DF800202846691CCDB204F10F0158
:100E10000A54281FA0744FF00008002007E004F1D6
:100E20000F01095C414401F0FF08411CC8B2A8420F
:100E3000F5DB2846691CCDB204F10F0101F80080F2
:100E40002A462046FFF738FABDE8F8832DE9F84F27
:100E500004460E4617469846DDE90AAB0025AA224D
:100E600029466D1C04F10F00425429466D1C425462
:100E7000022229466D1C4254002229466D1C425410
:100E800000969DF8012029466D1C42549DF80020D3
:100E900029466D1C425400979DF8012029466D1C7F
:100EA00042549DF800202846691CCDB204F10F0180
:100EB0000A54CDF800809DF801202846691CCDB267
:100EC00004F10F010A549DF800202846691CCDB298
:100ED00004F10F010A54CDF800A09DF80120284626
:100EE000691CCDB204F10F010A549DF80020284678
:100EF000691CCDB204F10F010A54CDF800B09DF881
:100F000001202846691CCDB204F10F010A549DF856
:100F100000202846691CCDB204F10F010A540C9838
:100F200000909DF801202846691CCDB204F10F0104
:100F30000A549DF800202846691CCDB204F10F0127
:100F40000A540D9800909DF801202846691CCDB2E6
:100F500004F10F010A549DF800202846691CCDB207
:100F600004F10F010A540E9800909DF801202846C4
:100F7000691CCDB204F10F010A549DF800202846E7
:100F8000691CCDB204F10F010A540F9800909DF82E
:100F900001202846691CCDB204F10F010A549DF8C6
:100FA00000202846691CCDB204F10F010A54281F05
:100FB000A0744FF00009002007E004F10F01095C64
:100FC000494401F0FF09411CC8B2A842F5DB28469C
:100FD000691CCDB204F10F0101F800902A462046A9
:100FE000FFF76AF9BDE8F88F2DE9FE4F04460E467B
:100FF00017469846DDE90CAB0025CDF804A0AA22DF
:1010000029466D1C04F10F00425429466D1C4254C0
:10101000012229466D1C4254002229466D1C42546F
:10102000FD49304609F0CAFC009009F001FC00B20D
:1010300002909DF8092029466D1C04F10F004254CE
:101040009DF8082029466D1C4254F349384609F0A2
:10105000B5FC009009F0ECFB00B202909DF809206D
:1010600029466D1C04F10F0042549DF808202846C3
:10107000691CCDB204F10F010A54E749404609F05A
:101080009DFC009009F0D4FB00B202909DF809206D
:101090002846691CCDB204F10F010A549DF80820BE
:1010A0002846691CCDB204F10F010A549DF80720AF
:1010B0002846691CCDB204F10F010A549DF80620A0
:1010C0002846691CCDB204F10F010A549DF8052091
:1010D0002846691CCDB204F10F010A549DF8042082
:1010E0002846691CCDB204F10F010A542846691C38
:1010F000CDB204F10F0101F800B029466A1CD5B247
:1011000004F10F020E985054281FA0744FF00009EC
:10111000002007E004F10F01095C494401F0FF09D8
:10112000411CC8B2A842F5DB2846691CCDB204F1C7
:101130000F0101F800902A462046FFF7BDF8BDE8F0
:10114000FE8F2DE9FF4104460E460025AA222946BE
:101150006D1C04F10F00425429466D1C42540022BC
:1011600029466D1C425429466D1C425429466D1C6B
:1011700046549DF8092029466D1C42549DF80820CC
:1011800029466D1C42549DF80D202846691CCDB29D
:1011900004F10F010A549DF80C202846691CCDB2B9
:1011A00004F10F010A549DF829202846691CCDB28C
:1011B00004F10F010A549DF828202846691CCDB27D
:1011C00004F10F010A549DF82D202846691CCDB268
:1011D00004F10F010A549DF82C202846691CCDB259
:1011E00004F10F010A54281FA0740027002006E014
:1011F00004F10F01095C3944CFB2411CC8B2A842C6
:10120000F6DB2846691CCDB204F10F010F542A46C3
:101210002046FFF751F8BDE8FF812DE9F04788B07F
:1012200004467E4800787E49097890FBF1F201FB84
:1012300012017B480078401E814201D10120A0703C
:10124000764800787749097890FBF1F201FB1201AA
:1012500074480078401E814201D10120E0706F483F
:1012600000787149097890FBF1F201FB12016E4898
:101270000078401E814201D10120607367480078E8
:101280006A49097890FBF1F201FB12016748007886
:10129000401E814201D1012060706048007864499D
:1012A000097890FBF1F201FB120161480078401EC1
:1012B000814201D10120A072584800785D49097827
:1012C00090FBF1F201FB12015A480078401E814266
:1012D00001D101202073514800785749097890FBCB
:1012E000F1F201FB120154480078401E814201D105
:1012F0000120A07349480078401C484908702078B4
:1013000068B1002020704FF4C8716E234FF49672BC
:10131000CDE9001001212046FFF713FF37E1607887
:10132000A8B1002060704549086B09F081FA0546B4
:101330004348407A4249097BCDE900510290414837
:101340008368426801682046FFF74EFE1FE1607B1C
:1013500010B1002060731AE1A07880B30020A07063
:101360003849486909F064FA05B23649086909F054
:101370005FFA06B23349C86809F05AFA07B2314930
:10138000C86A09F055FA0FFA80F82E49886A09F000
:101390004FFA0FFA80F92B49486A09F049FA0FFA17
:1013A00080FA0020CDE90250049043464A46514657
:1013B000CDE9007605902046FFF748FDE7E0FFE71E
:1013C000E07840B10020E07042F2107211462046F1
:1013D000FFF7DFFCDBE0A07AE8B10020A0721A483A
:1013E000408A1949098A184AD289174B9B89CDE945
:1013F0000332CDE90510144841890089124A528808
:10140000CDE900200291104803888288C1882046D7
:10141000FFF7FBFBBBE019E00000C8420200002020
:101420000300002009000020040000200500002027
:101430000600002007000020080000200C05002006
:10144000C400002020020020E0050020207B78B3AB
:101450000020207305A95B4800F0DBFF00200AE0B4
:1014600005A931F81010A1F57A7109B205AA22F880
:101470001010411CC8B20628F2DB0022BDF81E0085
:1014800081B2BDF81C0080B201AB07C30492BDF865
:101490001A0080B20090BDF8180083B2BDF81600A3
:1014A00082B2BDF8140081B22046FFF701FB6EE066
:1014B000FFE7A07B80B10020A07343494348006848
:1014C00009F07CFA064609F0F9F985B200222946AE
:1014D0002046FFF7A0FA5AE02079E8B100202071F9
:1014E0003B48026CC06B3A49896B394B5B6ACDE96A
:1014F0000331CDE905023648006A3549C969344AE5
:101500009268CDE9002102903148436801210268C8
:101510002046FFF769F93AE06079F8B10020607180
:101520002B48D0F89410D0F89020D0F88C00284B9D
:101530009B6FCDE90330CDE905212548406F244953
:10154000096F234AD26DCDE9002102902048836DB6
:101550000221426D2046FFF747F918E0A079B0B1AB
:101560000020A07103900490059001460246069069
:101570001748D0F8B000CDE9012100901448D0F808
:10158000AC300321D0F8A8202046FFF72DF908B091
:10159000BDE8F0870F4909781E290CDD00210D4AAE
:1015A00011700D49897A19B901220B498A7202E03A
:1015B000002209494A7207490978491C054A1170F5
:1015C00070470000000500200000C84260000020B5
:1015D000180100200A000020C40000202DE9F04777
:1015E00081460C4615462946C34809F0E7F980466E
:1015F00041464FF07E5009F025F80746214608F095
:10160000ADFF06463146204609F01CF8BDE8F087DC
:101610002DE9F84F0F4615461C462946B64809F0F5
:10162000CDF98146394609F0C9F9804641464FF067
:101630007E5009F007F806463146B04809F0BEF979
:1016400082463146304609F0B9F98346514608F0E2
:1016500085FF81464FF07E5108F080FF804641466D
:101660004FF07E5008F0EEFF20603146A34809F0AD
:10167000A5F983463146304609F0A0F95946009055
:1016800008F06CFF82464FF07E5108F067FF8046FD
:1016900031469A4809F092F9314600904FF0804067
:1016A00009F08CF98346314609F088F982460099A1
:1016B00008F054FF8146414608F0C4FF606031469F
:1016C0008E4809F07BF983463146304609F076F9B9
:1016D0005946009008F042FF81464FF07E5108F0D5
:1016E0003DFF80463146304609F068F98246414662
:1016F00008F0A8FFA060BDE8F88F2DE9F04107468B
:101700000D4614462146284608F028FF0646314675
:10171000204608F097FFBDE8F0810FB4F0B58DB01A
:1017200005460F461A9C224617A904A808F013FB89
:1017300004A807C807AB07C321464FF07E5009F045
:10174000FDFA0646324614A901A808F004FB01A8D8
:1017500007C80AAB07C307AA0AA9284608F017FB5F
:101760000DB0F0BC5DF814FB0FB470B59EB005462B
:101770000E4614460FA8002181604160016000BF41
:1017800004F10C010CA8A26808F0E5FA0CA807C83F
:1017900012AB07C304F1180109A8626808F0DBFA6C
:1017A00009A807C815AB07C325A906A8226808F031
:1017B000D2FA06A807C818AB07C315AA18A903A828
:1017C00008F0E5FA03A807C81BAB07C312AA1BA9B8
:1017D000684608F088FA9DE807000FAB07C3D4E914
:1017E0000712A069C4E90412E0600FA807C8C4E9A1
:1017F0000712A0610FA807C885E807001EB070BCDB
:101800005DF814FB2DE9F05F83460C4615463C4815
:10181000A168006809F0D2F880463A48616800681B
:1018200009F0CCF881462846216809F0C7F88246BD
:10183000494608F093FE0746414609F07FFA0646FE
:10184000304800682E4908602E480660304608F08F
:10185000EFFFBDE8F09F2DE9F05F83460C4615468B
:101860002948A168006809F0A9F8804627486168FE
:10187000006809F0A3F881462846216809F09EF81F
:101880008246494608F06AFE0746414609F056FA84
:1018900006461E4800681C4908601C480660304621
:1018A00008F0C6FFBDE8F09F0FB4F0B58DB0054657
:1018B0000F461A9C21464FF07E5009F03FFA06462B
:1018C000324617A904A808F046FA04A807C807ABCF
:1018D00007C3224614A901A808F03DFA01A807C8C9
:1018E0000AAB07C307AA0AA9284608F050FA0DB0A8
:1018F000F0BC5DF814FB0000DB0FC9400000404065
:10190000100000200C00002018000020140000200F
:1019100038B50446E148E24BE24A114600902046C1
:1019200007F0F7F8DD48DE4BDE4A1146009004F17F
:101930001C0007F0EEF8D9480023DB4ADB49009091
:1019400004F1380007F0E5F8002003460246D849C4
:10195000009004F1540007F0DCF800200346024632
:101960004FF08041009004F1700007F0D2F8D148A8
:10197000D14B4FF07C524FF07F51009004F18C001E
:1019800007F0C7F8C54800231A46CC49009004F177
:10199000A80007F0BEF838BD10B5044607231C2286
:1019A000C749204607F0DCF8044604F1C40008F0FB
:1019B0001CF9A0F1C40404F1D00008F016F9A0F15C
:1019C000D00404F1EC0008F010F9A0F1EC0404F1EB
:1019D000F80008F00AF9A0F1F80404F5807008F0A6
:1019E00004F9A0F58074962004F8DC0F32206070B2
:1019F00064206084DC3C2046FFF78AFF204610BD4F
:101A000010B50446AF49086B08F012FFC4F8D800BF
:101A100010BD2DE9F04188B0044603A80021816083
:101A20004160016000BFA8490868A84908F0C6FFE6
:101A30000746A749B1F9141048009622514201F017
:101A4000AEFF804608F05AFF0646394609F076F99F
:101A5000054608F0EDFE06909B4948689B4908F052
:101A6000ADFF07469A49B1F9161048009622514237
:101A700001F095FF804608F041FF0646394609F01F
:101A80005DF9054608F0D4FE07900221069801F0A2
:101A900091FF06900221079801F08CFF07904FF00C
:101AA000814289491831684608F001F99DE807002C
:101AB00003AB07C304F15400069901F06BFC074621
:101AC00008F01CFF0646039909F038F9054608F0AE
:101AD000AFFEC4F8E00004F15400079901F05AFC8D
:101AE000074608F00BFF0646049909F027F905465A
:101AF00008F09EFEE421085194F8DD007449B1F924
:101B0000181000FB01F5E91705EBD161481108F049
:101B1000F5FE0746059909F011F9064608F088FE1A
:101B2000E821085108B0BDE8F0812DE9FF470546DE
:101B300065494868002109F00DF802D26248406802
:101B400003E06148406880F0004007465E4908684D
:101B5000002108F0FFFF02D25B48006803E05A480A
:101B6000006880F000408046394608F0F3FF0DD24F
:101B700055490868002108F0EDFF02D2524800687C
:101B800011E05148006880F000400CE04E49486880
:101B9000002108F0DFFF02D24B48406803E04A48CA
:101BA000406880F0004004464A4A002101F0BDFE32
:101BB000064600241BE04648C08840F2E2418842C5
:101BC00005DAC4EBC40105EB810001F01DFC05F151
:101BD000E00252F82410C4EBC40205EB8200364A3E
:101BE00001F0E8FB01A941F82400601CC4B2032CF9
:101BF000E1DB374BB3F91830002B03DD344BB3F97D
:101C0000183003E0324BB3F918305B4203F596729B
:101C10002F4BB3F91830002B03DD2D4BB3F91830DF
:101C200003E02B4BB3F918305B422B4CE11A0398BD
:101C300001F0B5FE404203902848007BD8B93046F9
:101C400001F0C9FE824607F019FA80462049B1F931
:101C50001A10A1F57A7008F051FE8146414608F04D
:101C6000F1FC07461E4908F079FC044608F0E0FD47
:101C700001B217484183039800901548408B81B208
:101C80001848DDE9012300F09BFABDE8FF877047A3
:101C9000704710B51448FFF77FFE10BD00004843A1
:101CA0000AD7A33C9A99193E6666E63ECDCC4C3FD6
:101CB0000000A040000016436F12033B9A99993F21
:101CC000218B00080C05002020020020000020418C
:101CD000E00500200000A041D4FEFFFFC40000206A
:101CE00000007A44000500201801002010B50446C9
:101CF000204600BF0446204607F046FF044604F194
:101D00000C0007F041FFA0F10C0404F1180007F0EB
:101D10003BFFA0F1180404F1240007F035FFA0F107
:101D2000240404F1300007F02FFFA0F1300404F187
:101D30003C0006F0B2FEA0F13C0404F1600006F0A5
:101D4000ACFEA0F1600404F1880006F0B5FEA0F13D
:101D5000880404F5C87006F0AFFEA0F5C87404F559
:101D600027704FF07E5101600021C16081604160A9
:101D700000BFA0F52774204610BD10B504466222AE
:101D80004FF47A71F24803F043F810BD10B50446E1
:101D9000F04AF1492046FFF721FCF049086004F1C0
:101DA0003C03EC4AEC492046FFF732FC04F16003A7
:101DB000EB4AE9492046FFF72BFCEA4AE649204670
:101DC000FFF79BFCE549486010BD10B5044620466E
:101DD000FFF7DCFF2046FFF7D0FF10BD3EB50446FD
:101DE000DB4803F0E7F8DA4803F0B7F9D84968466A
:101DF00003F017FA9DE80700C4E90412E060D44933
:101E0000684603F007FA9DE80700C4E90A12606219
:101E10003EBDFFB595B00446219E09A807F0B4FE6B
:101E200006A807F0B1FED048007800F0010060B9C4
:101E3000CD4806F0A7FE40B100231A461946CB480C
:101E400007F09EFEC848AFF300801EAD284607F09D
:101E500027FF07463946284607F09FFE00BF09A91D
:101E600004F5277001F0E8FE09AA1EA903A807F0EF
:101E7000AAFF03A807C806AB07C3BD4A06A903A863
:101E800007F069FF03A807C812AB07C312A9B74838
:101E900007F097FEB74A06A903A807F05CFF03A85E
:101EA00007C80CAB07C3B14A0CA9684607F06FFF1F
:101EB0009DE807000FAB07C30FA916A807F081FE26
:101EC000324616A904F5277001F027FF04F52770A4
:101ED00001F0F8FD04F10803221D214604F52770E6
:101EE00002F0ADF819B0F0BD2DE9F04782460C467E
:101EF000A1490968601A08F0CDF807469F4AA04B2F
:101F000008F018F9054607F099FF81469A480460E1
:101F10004846BDE8F0872DE9F04395B004460EA889
:101F200007F0F0FD08A807F0EDFDD4E90A01CDE9BE
:101F3000000104F13C02214605A8636AFFF714FC86
:101F400005A807C8C4E90D122063D4E90401CDE94E
:101F5000000104F16002214605A8E368FFF704FCD4
:101F600005A807C8C4E90712A06104F13005294695
:101F7000284607F0D4FE8146824908F01FFD8046BE
:101F80004FF0974108F05EFB074608F051FCC4F89B
:101F9000AC0202F007F9054629462046FFF7A4FFE8
:101FA0000646206A00906A4905A8D4E9062303F092
:101FB0003FF90396D4E90D12206B8DE80700204607
:101FC00005A90EC9FFF725FF15B0BDE8F0832DE97F
:101FD000F0418CB080460C4603A807F07FFD6846B0
:101FE00007F0D2FD206801F0F6FC80F00045606843
:101FF00001F0F1FC80F00046A06801F0ECFC07461F
:1020000000950196029700BF694603A807F0E2FC1D
:1020100004F1300203A9404607F0F0FD0CB0BDE822
:10202000F0813FB59BB00446259D12A807F0ACFD9A
:102030005548007800F0010048B9534806F0A2FD69
:1020400028B1524807F0A0FD4F48AFF300801CAA0A
:102050004E4906A807F09BFE06A807C815AB07C3A4
:102060004FF07C5215A903A807F075FE03A807C816
:1020700018AB07C32A4618A9684607F06CFE9DE80E
:10208000070012AB07C341481CA90EC90EC009A81E
:1020900007F024FD12A909A807F09CFC3C48007831
:1020A00000F0010068B93A4806F06CFD48B14FF005
:1020B0008B4300221146374807F062FD3448AFF3E6
:1020C00000803548007800F0010060B9324806F021
:1020D00059FD40B100231A463049314807F050FD00
:1020E0002D48AFF300802B4A09A906A807F086FD0A
:1020F000284806A90EC90EC018484068049022A8B6
:1021000007C801AB07C323488068009021482146D7
:102110000CC806A8FFF7C8FB1E4806A90EC90EC0CA
:102120001F4A09A906A807F069FD1D4806A90EC99E
:102130000EC02146174807F0EDFC2146184807F06D
:1021400013FD1FB030BD10B51648FFF7CFFD10BD11
:102150002C060020000048426F12033BC400002000
:10216000000002436666E63F2C000020F4040020D5
:102170006F12833ACDCCCC3D1C0000208DEDB5A074
:10218000F7C6B03E0000C84228000020D00400205E
:1021900024000020DC040020200000200000484330
:1021A000E8040020200200200146002005E04FF452
:1021B0007A7221F81020421CD0B20628F7DB704753
:1021C0002DE9F04F8FB004460D4616469B46DDF8CC
:1021D0006090484607F047FFCDE90A01584607F0EE
:1021E00042FF0746914A924B07F0A4FFCDE9060152
:1021F000304607F038FF00228E4BCDE9000107F092
:1022000099FF07468846284607F044FF3A4643466A
:10221000CDE9020108F08CF8CDE90401DDE90623DF
:1022200007F03EFECDE90801DDE90A2307F038FE9C
:10223000CDE90C0107F0E8FE00B2A080484607F0A7
:1022400012FFCDE90A01584607F00DFF0746774A0D
:10225000774B07F06FFFCDE90601304607F003FF2B
:1022600007460022734B07F065FFCDE902012846BF
:1022700007F010FFCDE90001DDE9022308F058F86E
:10228000CDE90401DDE9062308F052F8CDE90801A3
:10229000DDE90A2307F004FECDE90C0107F0B4FEE6
:1022A00000B26080484607F0DEFECDE90A015846DC
:1022B00007F0D9FE07465D4A5D4B07F03BFFCDE9CD
:1022C0000601304607F0CFFE00225A4BCDE900014F
:1022D00007F030FF07468846284607F0DBFE3A46FF
:1022E0004346CDE9020107F0DBFDCDE90401DDE95C
:1022F000062307F0D5FDCDE90801DDE90A2308F042
:1023000017F8CDE90C0107F07FFE00B220804846A7
:1023100007F0A9FECDE90A01584607F0A4FE0746DA
:10232000424A434B07F006FFCDE90601304607F06D
:102330009AFE074600223F4B07F0FCFECDE9020162
:10234000284607F0A7FECDE90001DDE9022307F0EA
:10235000A7FDCDE90401DDE9062307F0E9FFCDE99A
:102360000801DDE90A2307F0E3FFCDE90C0107F0DE
:102370004BFE00B2E080A81BA0EB090000B2608118
:10238000A819484400B22081B4F900A0012007E058
:1023900034F91010514501DD34F910A0411CC8B2C8
:1023A0000628F5DB002719E040F26C70824507DD56
:1023B00034F81710AAF26C70081A00B224F817004B
:1023C00034F8171088B240F26C7240F24C4101F0C0
:1023D000DBFA00B224F81700781CC7B2062FE3DB43
:1023E0001548407A10B92046FFF7DEFE1248007B00
:1023F00040B91248C08840F2E241884202DA2046E1
:10240000FFF7D2FE21460E4803F001FB0FB0BDE8F6
:10241000F08F02880A8042884A8082888A80C28837
:10242000CA8002890A8142894A81704783C0CAA151
:1024300045B6EB3F0000E03FC4000020E00500206F
:102440009300002010B50446204600BF044604F166
:10245000100007F099FBA0F1100404F11C0007F034
:1024600093FBA0F11C0404F1280007F08DFBA0F100
:10247000280404F1340007F087FBA0F1340404F1D0
:10248000400007F081FBA0F1400404F1500006F089
:1024900004FBA0F1500404F1740006F0FEFAA0F170
:1024A000740404F1B40007F06FFBA0F1B4044FF022
:1024B00082431A46194604F1B40007F06AFBFE484D
:1024C0009834A0614FF48020A062FC4844F8980939
:1024D000FB499C200151FB49A0200151FA49A4204D
:1024E0000151FA49A8200151F949AC200151204677
:1024F00010BD10B50446F74802F012FF10BD10B52C
:10250000044604F15003F44AF4492046FFF780F8EA
:1025100004F17403F24AF1492046FFF779F810BD3F
:1025200010B504462046FFF7EAFF2046FFF7E1FF1B
:1025300010BD01B5AEB017A807F026FB14A807F030
:1025400023FBE84800680A2803D0E74800780228FF
:102550007DD10020E44908705521E34803F0FCFBDD
:102560000020E049086001F01DFEE0490968401ABA
:102570000F9007F08FFDDE4ADE4BCDE9100107F02A
:10258000D9FDCDE9120107F059FC1A9001F00AFEBD
:10259000D64908602E98C068129008F0AFF902463C
:1025A00013902E9974312E98FFF755F92E99886063
:1025B0002E988068D0490968401A119008F0B6F941
:1025C00012901A9908F03EF8139008F031F901B210
:1025D0002E9841802E988068C74908602E98B0F9DF
:1025E00002004FF4FA525142139001F0D8F901B2AF
:1025F0002E9841802E98B0F902006421139001F0CA
:10260000D9F901B22E9841802E98C068BA4909685C
:10261000884205D1B9480078401CB849087002E0EA
:102620000021B64801702E98C068B34908602E9802
:10263000806800280FDD2E988068B0F57A7F0ADA6E
:10264000AE4800781E2806DA01212E9800E006E048
:1026500080F8D01003E000212E9880F8D010A14817
:102660000068401C9F490860A5480068052803D100
:10267000984802F06AFF09E2A14800680A28FAD1E6
:1026800001F090FD9F490968401A0F9007F002FD84
:10269000974A984BCDE9100107F04CFDCDE91201A6
:1026A00007F0CCFB1A9001F07DFD964908600021EF
:1026B00093480160874802F048FF864802F061FFB6
:1026C000129008F01BF9024613902E9950312E9863
:1026D000FFF798F82E9948602E984168D0F8C4000A
:1026E000081A119008F00AF912901A9907F0AAFF37
:1026F000139008F09DF801B22E9801802E98416841
:10270000C0F8C4102E98B0F900004FF4487251423E
:10271000139001F044F901B22E9801802E98B0F97F
:1027200000000A21139001F045F901B22E980180B2
:102730002E9890F8D00000287ED02E98B0F9020094
:10274000119008F0DBF812902E98406A0146119023
:10275000129808F0F3FA1390169801461290139805
:1027600007F0FCFE16902E98D0F8A00001460890C5
:102770004FF07E5008F0E2FA099007F0C3FECDE971
:102780000C012E98B0F90200079007F06CFC5E4A2D
:102790005E4BCDE9080107F0CDFCCDE90A01DDE98A
:1027A0000C2307F0C7FCCDE910012E98D0F8A0004B
:1027B0000C902E98406A0B900C9908F0FFF80D9041
:1027C00007F0A0FECDE90E01DDE9102307F068FB5C
:1027D000CDE9120107F032FB01462E9841622E9896
:1027E000D0F8AC00014608904FF07E5008F0A6FAF1
:1027F000099007F087FECDE90C012E9880680790BC
:1028000007F031FC404A414BCDE9080107F092FC4A
:10281000CDE90A01DDE90C2307F08CFCCDE91001BC
:102820002E98D0F8AC000C902E98006B0B900C9961
:1028300008F0C4F80D9000E07AE007F063FECDE9FF
:102840000E01DDE9102307F02BFBCDE9120107F0A3
:10285000F5FA01462E9801632E984068039007F020
:1028600002FCCDE906012E988068019007F0FBFB81
:10287000254A264BCDE9020107F05CFCCDE90401B5
:10288000DDE9062307F054FDCDE9080107F0D6FA8B
:102890000B9007F037FE1E4A1E4BCDE90C0107F0E6
:1028A00049FCCDE910012E98D0F8CC000D9007F02E
:1028B000DAFBCDE90E012FE0FFCF743ECDCC4C3FCB
:1028C00052B87E3FA4707D3F0AD7A33BF6287C3FD9
:1028D0003333733F840600200000A0400AD7A33C96
:1028E00000004842340000209400002040000020F6
:1028F0008DEDB5A0F7C6B03E440000204800002092
:10290000300000203C0000209A9999999999B93F8C
:10291000FCA9F1D24D62503FDDE9102307F0C0FA67
:10292000CDE9120107F070FB2E99C1F8CC00ADE0A3
:102930002E98B0F90000119007F0E0FF12902E9849
:10294000406A01461190129808F0F8F91390169811
:1029500001461290139807F001FE16902E98D0F8B9
:10296000A400119016981090119908F027F8139070
:102970002E98D0F89C0001460D904FF07E5008F044
:10298000DDF90F902E98B0F900000D9007F0B6FF1A
:102990000E900F9908F012F811902E98D0F89C0024
:1029A0000F902E98406A0E900F9908F007F810903B
:1029B000119907F0D3FD1290139907F0CFFD01464E
:1029C0002E9841622E98D0F8A80001460F904FF043
:1029D0007E5008F0B3F911902E984168D0F8CC00E1
:1029E00008440F9007F08AFF1090119907F0E6FF56
:1029F00013902E98D0F8A80011902E98006B10908C
:102A0000119907F0DBFF1290139907F0A7FD01461B
:102A10002E9801632E984068109007F06FFF119078
:102A20002E98006B01461090119808F087F900214C
:102A3000129008F08FF80DD22E984068119007F090
:102A40005DFF12902E98006B01461190129808F0CD
:102A500075F90EE02E984068119007F04FFF129024
:102A60002E98006B01461190129808F067F980F0DB
:102A700000409A49139008F06DF807D22E984068EC
:102A8000139007F03BFF01462E98016394480068BD
:102A9000401C9349086001F085FB92490968401A7F
:102AA0000F9007F0F7FA904A904BCDE9100107F02C
:102AB00041FBCDE9120107F0C1F91A9001F072FB58
:102AC000884908608A4911A8FFF781FA11A807C848
:102AD00017AB07C38748407A08BB2E98D0F8C000D0
:102AE000C117139000EB916081112E98D0F8C000AF
:102AF000411A2E98C0F8C0102E98D0F8C00011903E
:102B000007F0FCFE1290199801461190129807F0F8
:102B100025FD139007F08CFE2E99C1F8C0002E9869
:102B2000D0F8C000C117139000EB91608011119094
:102B300007F0E4FE1290199801461190129808F0DF
:102B40006BF819902E98D0F8B4000F9007F070FE33
:102B5000119017980F9007F06BFE1090119900F0EC
:102B600029FF129007F0CAFE13902E98D0F8B000FB
:102B700001461290139807F021FF2E9908612E98B4
:102B8000D0F8B8000F9007F053FE119018980F90EE
:102B900007F04EFE1090119900F00CFF129007F014
:102BA000ADFE80F0004013902E98D0F8B0000146A2
:102BB0001290139807F002FF01462E9841612E985B
:102BC000D0F8BC000F9007F033FE119019980F90C9
:102BD00007F02EFE1090119900F0ECFE129007F015
:102BE0008DFE13902E98D0F8B000014612901398E5
:102BF00007F0E4FE01462E9881612E9A40322E990C
:102C00001C3111A807F0C3F811A807C824AB07C3EB
:102C100024A90EA81A9A07F09EF80EA807C827AB99
:102C200007C34FF07C5227A90BA807F094F80BA814
:102C300007C82AAB07C32AA92E98283006F0C1FF7F
:102C40002E98D0E90823C16940300EC02E9A343244
:102C50002E99103111A807F09AF811A807C81BABDC
:102C600007C31BA90EA81A9A07F075F80EA807C883
:102C70001EAB07C34FF07C521EA90BA807F06BF8E0
:102C80000BA807C821AB07C321A92E981C3006F05A
:102C900098FF2E98D0E90523016934300EC02FB07B
:102CA00000BD10B5044600231A46194604F1100071
:102CB00006F06FFF00231A46194604F11C0006F0C7
:102CC00068FF00231A46194604F1280006F061FF48
:102CD00010BD10B50848FFF7B5FB10BD0000484314
:102CE00030000020380000208DEDB5A0F7C6B03EC2
:102CF00020020020C40000200C05002010B504466E
:102D0000FE490888FE49098801F01AFE10BD1CB56D
:102D10000446FA490889694601F06DFCF74948897B
:102D20000DF1020101F067FCF449888901A901F065
:102D300062FCBDF8000000B2F2490881BDF8020053
:102D400001B2F0484181BDF8040001B2ED48818133
:102D50001CBD1CB50446E9494888694601F04BFC96
:102D6000E64988880DF1020101F045FCE349C88875
:102D700001A901F040FCBDF8000000B2E149488023
:102D8000BDF8020001B2DF488180BDF8040001B245
:102D9000DC48C1801CBD38B50446D849C88969469D
:102DA00001F029FCBDF8000007F0C0FD0546D6493A
:102DB00007F048FCD5490860D049088A694601F007
:102DC0001AFCBDF8000007F0B1FD0546CE4907F03A
:102DD00039FCCE494860C949488A694601F00BFC74
:102DE000BDF8000007F0A2FD0546C94907F02AFC1E
:102DF000C6498860C149888A694601F0FCFBBDF874
:102E0000000007F093FD0546BF4907F01BFCBF49D2
:102E1000C861BA49C88A694601F0EDFBBDF80000F7
:102E200007F084FD0546B84907F00CFCB749086275
:102E3000B249088B694601F0DEFBBDF8000007F0DF
:102E400075FD0546B24907F0FDFBB0494862AB4944
:102E5000488B694601F0CFFBBDF8000007F066FD26
:102E60000546A94907F0EEFBA8498863A349888B6A
:102E7000694601F0C0FBBDF8000007F057FD0546AC
:102E8000A14907F0DFFBA149C8639C49C88B69468B
:102E900001F0B1FBBDF8000007F048FD05469C4974
:102EA00007F0D0FB994908649449088C694601F001
:102EB000A2FBBDF8000007F039FD0546924907F076
:102EC000C1FB9249C1F8A8008C49488C694601F0C1
:102ED00092FBBDF8000007F029FD05468A4907F07E
:102EE000B1FB8A49C1F8AC008449888C694601F07D
:102EF00082FBBDF8000007F019FD0546844907F084
:102F0000A1FB8249C1F8B0007C49C88C694601F038
:102F100072FBBDF8000007F009FD05467A4907F08D
:102F200091FB7A4948657549088D694601F063FB54
:102F3000BDF8000007F0FAFC0546734907F082FB74
:102F4000724988656D49488D694601F054FBBDF8AA
:102F5000000007F0EBFC05466D4907F073FB6B4979
:102F6000C8656649888D694601F045FBBDF80000DB
:102F700007F0DCFC0546644907F064FB6349086719
:102F80005E49C88D694601F036FBBDF8000007F0C8
:102F9000CDFC05465C4907F055FB5C49486757493D
:102FA000088E694601F027FBBDF8000007F0BEFC63
:102FB0000546574907F046FB5449886738BD10B5A8
:102FC00004462046FFF7E7FE2046FFF7C2FE2046F4
:102FD000FFF79DFE10BD70B505464C4908684A498B
:102FE00007F0ECFC064607F069FC84B24349C88947
:102FF000214601F0A5FC45494868434907F0DEFC3D
:10300000064607F05BFC84B23C49088A214601F081
:1030100097FC3E4988683E4907F0D0FC064607F019
:103020004DFC84B23549488A214601F089FC374974
:10303000C869354907F0C2FC064607F03FFC84B278
:103040002E49888A214601F07BFC3049086A2E49C6
:1030500007F0B4FC064607F031FC84B22749C88A61
:10306000214601F06DFC2949486A294907F0A6FC70
:10307000064607F023FC84B22049088B214601F064
:103080005FFC2249886B204907F098FC064607F050
:1030900015FC84B21949488B214601F051FC1B49AB
:1030A000C86B194907F08AFC064607F007FC84B292
:1030B0001249888B214601F043FC1449086C1449DD
:1030C00007F07CFC064607F0F9FB84B20B49C88B7D
:1030D000214601F035FC0D49D1F8A8000A4907F056
:1030E0006DFC064607F0EAFB84B20449088C2146D1
:1030F00001F026FC0549D1F8AC000BE00EAF00084A
:103100004C0000202C0600200000C84218010020BE
:1031100000007A445E4907F051FC064607F0CEFBFA
:1031200084B25C49488C214601F00AFC5A49D1F826
:10313000B0005A4907F042FC064607F0BFFB84B2D4
:103140005449888C214601F0FBFB5349486D504996
:1031500007F034FC064607F0B1FB84B24D49C88C39
:10316000214601F0EDFB4C49886D494907F026FCEA
:10317000064607F0A3FB84B24649088D214601F0BC
:10318000DFFB4549C86D454907F018FC064607F0C6
:1031900095FB84B23F49488D214601F0D1FB3E4961
:1031A000086F3B4907F00AFC064607F087FB84B22C
:1031B0003849888D214601F0C3FB3749486F3449AF
:1031C00007F0FCFB064607F079FB84B23149C88D55
:1031D000214601F0B5FB3049886F304907F0EEFB1E
:1031E000064607F06BFB84B22A49088E214601F09F
:1031F000A7FB70BD38B5044626490888694601F02A
:10320000FAF9BDF8000038BD10B504462046FFF7B6
:10321000F1FF23490988884202D02046FFF7DBFEF0
:103220002046FFF7CCFE2046FFF768FD10BD10B525
:1032300004461C4A528891B2164A508801F080FB1D
:10324000184A928891B2134A908801F079FB154A86
:10325000D28891B20F4AD08801F072FB10BD10B530
:103260000446104A128991B20A4A108901F068FB9B
:103270000C4A528991B2074A508901F061FB094A10
:10328000928991B2034A908901F05AFB10BD000067
:103290000000C8420EAF00081801002000007A4468
:1032A0004C0000202C0600202DE9F05F04460E465D
:1032B00017460021A06807F087FA3AD00021384667
:1032C00007F082FA35D0A06920F00041C1F1FF413A
:1032D000C90F19B100250020A06108E06169701ACA
:1032E00007F00CFB8046394607F0ACF90546284646
:1032F000A16907F023FD82463946454807F02EF9BB
:1033000083465946384607F09DF98146514607F0F5
:1033100055FB8046A16907F021F905466661A56164
:103320002946A06807F04AFB804607F081FABDE80D
:10333000F09F0020FBE72DE9F04704460E461546B6
:103340000021606807F040FA22D00021284607F0EB
:103350003BFA1DD0304607F0D1FA8146616807F08C
:103360002DFB8046294607F029FB0746216907F017
:10337000F5F82061E06880F0004702463946206990
:1033800000F0D3FA2061206907F052FABDE8F08717
:103390000020FBE72DE9F04104460D46284607F0E2
:1033A000ADFA0746216807F009FB064607F040FA28
:1033B000BDE8F0812DE9F04104460D461646294648
:1033C0002046FFF7E7FF0746324629462046FFF72B
:1033D000B2FF0744324629462046FFF765FF3844CE
:1033E000BDE8F0812DE9F04104460D461646294618
:1033F0002046FFF7CFFF0746324629462046FFF713
:103400009AFF3844BDE8F081002101617047000057
:103410000361023C30B50146002013E000FB00F2DE
:10342000193A32235A4302F6C41242435A4340F631
:10343000C41392FBF3F213B201F11C0222F8103014
:10344000421CD0B20728E9DB00202EE000EB80040C
:103450006400A4F132020123002A00DD3223002A95
:1034600000DA3223002503FB03F495FBF4F4643403
:1034700054430A2594FBF5F404F5FA7425B201F1DE
:103480002A0424F8105034F910404FF448756C4366
:103490004FF47A7594FBF5F404F24C4425B201F133
:1034A0002A0424F81050421CD0B20C28CEDB30BDC8
:1034B00010B504462046FFF7ADFF204610BD2DE9AC
:1034C000F05F0446002060E034F81010A1F2DC51F7
:1034D000002904DD34F81010A1F2DC5104E034F8C6
:1034E000101040F2DC52511AB1F5FA7F10DA34F8BC
:1034F0001010A1F2DC51002904DD34F81010A1F203
:10350000DC5107E034F8101040F2DC52511A01E0AF
:103510004FF4FA710E4602281FD0642196FBF1F594
:1035200004F11C016A1C31F9122031F91510511AED
:1035300005EBC50202EB0512A6EB820251436422A1
:1035400091FBF2F204F11C0131F8151011440AB29A
:1035500004F1140121F8102005E071420AB204F1CF
:10356000140121F8102034F8101040F2DC5291427E
:1035700009DA04F1140131F8101049420AB204F1D9
:10358000140121F81020411CC8B203289CDBE088FC
:103590004FF4FA6240F2E24100F0F6F90646A6F274
:1035A000E2404FF47A71484340F2EE21B0FBF1F66D
:1035B000642096FBF0F58648007B08BB04F12A00E6
:1035C000691C30F9111030F91500081A05EBC50116
:1035D00001EB0511A6EB81014843642190FBF1F159
:1035E00004F12A0030F81500084401B26183E08834
:1035F0004FF4FA6240F2E24100F0C6F901B2618391
:10360000B4F91800002802DDB4F9180002E0B4F99A
:1036100018004042462833DAE08840F2E24188420E
:103620002EDD6C4AD2F89812906807F087FB80462E
:1036300007F0FEF807B217F1B40F02DC07F5B4701B
:1036400007B2B42F02DBA7F5B47007B2784207B215
:10365000384607F053F983465F48016F584607F034
:10366000ADF98146B4F9180007F048F98246494699
:1036700007F064FB804607F0DBF801B2218304E029
:10368000544880685349C1F89802BDE8F09F01464C
:10369000002034E031F81020B2F5617F04DB31F80E
:1036A0001020B2F5FA6F00DD2BE031F8102040F267
:1036B000E2439A4207DA494A125C494B1B781A43A3
:1036C000474B1A7006E0454A135C454A12789A4304
:1036D000434B1A7031F81020B2F5E16F07DD414A13
:1036E000125C3F4B1B781A433D4B1A7006E03D4A73
:1036F000135C3B4A12789A43394B1A70401C0428D9
:10370000C8DB00BF364A12784AB1374A1278FA2A23
:103710000ADA354A1278521C334B1A7004E0002240
:10372000314B1A702E4B1A702F4A1278642A29D105
:10373000274A527A6AB12A4A127802F01002E2B19C
:10374000274A127802F04002BAB10023204A53728D
:1037500013E0234A127802F0200272B1204A127854
:1037600002F040024AB11A4A127A1AB10123184AE9
:10377000537202E001221D4B5A700022184B1A703E
:10378000194B1A7070471A49498900291ADD1849DE
:10379000498940F63402914214DA154949890029D1
:1037A00005DD1349498940F2145291420ADB104960
:1037B0004989B1F5AF6F04DD0D494989B1F5C86F8D
:1037C00000DB00BF704700B50948FFF771FE00BD80
:1037D000C4000020200200201801002006AF0008CD
:1037E0004F0000200AAF00084E0000202C060020E9
:1037F000E005002010B53848FCF7F0FF3648FDF72B
:103800000CFD10BD10B53548FEF7E8FA3348FEF759
:1038100082FB3348FEF789F93248FEF78AFE10BD75
:1038200010B52F48FEF7F5F810BD10B500F0CCFD2F
:1038300010BD10B52C48FFF742FE2B48FFF727FFBD
:103840002948FFF7A0FF2448FDF7A4FE2748FCF70E
:10385000B6FC2348FEF71BFA2148FEF719FA10BD03
:1038600010B523480088012804DBFFF7C3FF0020C0
:103870001F4908801E484088022804DBFFF7C2FF6A
:1038800000201B4948801A488088052804DBFFF780
:10389000C7FF0020164988801548C0880A2804DB25
:1038A000FFF7C3FF00201249C8801148008914287F
:1038B00004DBFFF7BEFF00200D49088110BD002189
:1038C0000181C180818041800180704700B5084836
:1038D000FFF7F5FF00BD0000D4000020200200200B
:1038E000180100200C050020E0050020C400002085
:1038F0002206002010B50446204605F02AF908B13A
:10390000002010BD4FF07E51204607F023F901D86A
:103910006748F6E76749204607F01CF801D8664873
:10392000EFE7204605F0E8F9EBE72DE9F041064620
:103930000C461546304605F00CF950B12946204694
:1039400006F00CFE07464FF07C5107F037F8BDE853
:10395000F0812146304606F0FDFF01D22046F6E711
:103960002946304607F0F6F801D22846EFE7304600
:10397000EDE703468B4201DA08467047934201DDCA
:103980001046FAE71846F8E703468B4201DA084684
:103990007047934201DD1046FAE71846F8E7034600
:1039A0008B4201DA08467047934201DD1046FAE780
:1039B0001846F8E7002801DD024600E042428A424C
:1039C00001DA002006E0002801DD401A02E00028AC
:1039D00000DA0844704710B504463849204606F01E
:1039E000EDFF10BD10B504463549204606F0E6FF50
:1039F00010BD10B504462146204606F0DFFF10BD7D
:103A00002DE9F04105460C462046FFF7F2FF074638
:103A10002846FFF7EEFF8046394606F09FFD064632
:103A200005F0C2FFBDE8F0812DE9F05F06460C46C7
:103A300015462846FFF7DDFF81462046FFF7D9FFF0
:103A400082463046FFF7D5FF8346514606F086FD95
:103A50008046494606F082FD074605F0A5FFBDE811
:103A6000F09F2DE9FE4F07460C4615461E46304690
:103A7000FFF7BFFF02902846FFF7BBFF01902046EB
:103A8000FFF7B7FF00903846FFF7B3FF8346009972
:103A900006F064FD8246019906F060FD81460299B8
:103AA00006F05CFD804605F07FFFBDE8FE8F00005C
:103AB000DB0FC93F000080BFDB0FC9BF34FA8E3C6B
:103AC000E12E654270B5044694E80F00FFF7C9FF88
:103AD00005462946206806F0B5FD20602946606845
:103AE00006F0B0FD60602946A06806F0ABFDA0605E
:103AF0002946E06806F0A6FDE06070BD2DE9F04FB4
:103B000085B004460D46A168084606F057FF0746F3
:103B1000D4E9020106F052FF80466168084606F0CB
:103B20004DFF8146D4E9010106F048FF8246E16875
:103B3000606806F043FF0490D4E9000106F03EFF00
:103B40000390A168206806F039FF0290E1682068C0
:103B500006F034FF0190E168084606F02FFF009060
:103B60003846009906F0FAFC83464FF0804106F093
:103B700025FF06464FF07E5107F04EF8286050466C
:103B8000019907F0DBF806464FF0804106F016FF7A
:103B900068600299049806F0E1FC06464FF0804107
:103BA00006F00CFFA8605046019906F0D7FC0646C7
:103BB0004FF0804106F002FFE8604846009906F0A9
:103BC000CDFC83464FF0804106F0F8FE06464FF0EC
:103BD0007E5107F021F828614046039907F0AEF8BE
:103BE00006464FF0804106F0E9FE686102990498AC
:103BF00007F0A4F806464FF0804106F0DFFEA8610A
:103C00004046039906F0AAFC06464FF0804106F0B4
:103C1000D5FEE8613946484606F0A0FC83464FF0E1
:103C2000804106F0CBFE06464FF07E5106F0F4FFD1
:103C3000286205B0BDE8F08F2DE9F04704460D4637
:103C4000A168206806F0BAFE0746E168606806F0E1
:103C5000B5FE8046394607F071F806464FF08041C0
:103C600006F0ACFE2860D4E9020106F0A7FE074684
:103C7000D4E9000106F0A2FE8046394606F06EFC4B
:103C800006464FF0804106F099FE6860A16808463C
:103C900006F094FE80466168084606F08FFE814675
:103CA000414606F05BFC07464FF0804106F086FE79
:103CB00006464FF07E5106F0AFFFA860BDE8F087E2
:103CC00070B58CB006460C4603AD284605F05CFF87
:103CD000054605F10C0005F057FFA0F10C0505F1B4
:103CE000180005F051FFA0F1180500BFA06880F092
:103CF0000040A06003A93046FFF700FF224603A959
:103D0000684605F07BFF9DE8070084E80700A0688F
:103D100080F00040A0600CB070BD2DE9F04F8FB076
:103D2000044689469246504606F0ECFBCDE9080170
:103D3000D9F80810E06806F041FE0490D9F80410A4
:103D4000A06806F03BFE0390606880F000400190A0
:103D5000D9F8001006F032FE0290039906F0EEFF4B
:103D60008346049906F0EAFF059006F0CBFB074670
:103D70000022F74B06F0DEF9CDE90601DDE9082364
:103D800006F0D8F905460E46206806F0BBFB2A4629
:103D90003346CDE90A0106F083F8CDE90C0106F0BF
:103DA0004DF82060504606F0ADFBCDE90601D9F88C
:103DB0000410E06806F002FE0490D9F80810A0682C
:103DC00006F0FCFD0390D9F80010206806F0F6FD1F
:103DD0000290039906F0C2FB8346049906F0AEFFF9
:103DE000059006F08FFB07460022D94B06F0A2F99A
:103DF0000546DDE9062306F09DF9CDE90A01606874
:103E000006F080FBCDE90801DDE90A2306F048F859
:103E1000CDE90C0106F012F86060504606F072FB26
:103E2000CDE90801D9F80010E06806F0C7FD04905C
:103E3000D9F80810606806F0C1FD0390D9F80410A5
:103E4000206806F0BBFD0290039906F077FF8346D9
:103E5000049906F083FB059006F054FB0022BC4B4E
:103E6000CDE9060106F066F90746DDE9082306F00C
:103E700061F9CDE90A01A06806F044FB0546DDE9D9
:103E80000A2306F00DF8CDE90C0105F0D7FFA0607C
:103E9000504606F037FBCDE90601D9F80010A068BE
:103EA00006F08CFD0390D9F80410606806F086FDDA
:103EB0008346D9F80810206806F080FD5946029024
:103EC00006F04CFB8046039906F038FF074606F0E3
:103ED00019FB054600229E4B06F02CF9CDE90401A2
:103EE000DDE9062306F026F9CDE90A01E06806F0CF
:103EF00009FBCDE90801DDE90A2305F0D1FFCDE991
:103F00000C0105F09BFFE0600FB0BDE8F08F2DE9DC
:103F1000F04F85B004460D4616461F464FF07C51C3
:103F2000284606F04BFD824605F0A8F880464FF083
:103F30007C51304606F042FD824605F09FF88146EE
:103F40004FF07C51384606F039FD824605F096F870
:103F500004904FF07C51284606F030FD824605F073
:103F60005DFC03904FF07C51304606F027FD824601
:103F700005F054FC02904FF07C51384606F01EFDCF
:103F8000824605F04BFC0190DDE9021006F016FDBB
:103F90000090019906F012FD82464946404606F01F
:103FA0000DFD0090049906F009FD8346514606F088
:103FB000D5FA20604046029906F000FD0090019974
:103FC00006F0FCFC82464946039806F0F7FC009098
:103FD000049906F0F3FC8346514606F0AFFE60609C
:103FE0004946039806F0EAFC0090019906F0E6FCC9
:103FF00082464046029906F0E1FC0090049906F0E2
:10400000DDFC8346514606F0A9FAA060DDE9021006
:1040100006F0D4FC0090049906F0D0FC8246494694
:10402000404606F0CBFC0090019906F0C7FC8346A1
:10403000514606F083FEE06005B0BDE8F08F2DE943
:10404000FE4F04460D4616461F468DB3A16808462E
:1040500006F0B4FC01906168084606F0AFFC0090E1
:10406000019906F07BFA83464FF0804106F0A6FCEA
:1040700082464FF07E5106F0CFFD8146D4E9020121
:1040800006F09CFC8346D4E9000106F097FC5946F3
:10409000019006F063FA82464FF0804106F08EFCF4
:1040A0004946029004F0BCFE8046FFF79BFC286066
:1040B000C6B1E168606806F081FC8346A1682068AB
:1040C00006F07CFC5946029006F038FE82464FF01E
:1040D000804106F073FC8146FFF70CFC8046FFF739
:1040E00081FC30608FB36168084606F067FC019080
:1040F0002168084606F062FC0090019906F02EFA4D
:1041000083464FF0804106F059FC82464FF07E51C5
:1041100006F014FE0290E168206806F04FFC83462A
:10412000D4E9010106F04AFC5946019006F006FE6A
:1041300082464FF0804106F041FC8146029904F02E
:104140006FFE8046FFF74EFC3860BDE8FE8F000032
:104150000000E03F00B585B0684602F0C8FF504956
:104160000098B0FBF1F04F49086005B000BD4E4823
:104170000068401C4C4908604C480088401C4B4972
:10418000088008464088401C488008468088401CBB
:1041900088800846C088401CC88008460089401CAA
:1041A0000881704700BF404801684FF0E0208269F5
:1041B0003D4800688142F6D13A48006800EB400370
:1041C000C3EBC010C2EBC000364B1B68B0FBF3F072
:1041D00001EB4103C3EBC11300EBC300704730B5E3
:1041E0000446FFF7DFFF054600BFFFF7DBFF401B7C
:1041F000A042FAD330BD10B5044603E04FF47A7004
:10420000FFF7EDFF2000A4F10104F7D110BD70B558
:104210004FF4407001F01EFEFFF79CFF2448006839
:104220004FF47A72B0FBF2F1481EB0F1807F00D3F8
:104230001BE0481E4FF0E022506150170F2200286B
:1042400007DA13071D0E1B4B00F00F04241F1D552A
:1042500003E013071C0E184B1C5400BF00204FF046
:10426000E02290610720106100BF00F084FB01F0A4
:1042700017FCFB220421114801F0D3F945F6C05088
:1042800001F016FB4FF4165001F0ACFC00F056FDA7
:1042900000F094F802F0BDF900F0CDFA70BD000016
:1042A00040420F0050000020540000202206002051
:1042B000B000002018ED00E000E400E0AC060020B3
:1042C00008B50121084602F072FF01214FF4017088
:1042D00002F07AFF1020ADF8000000208DF80300F6
:1042E0006946614802F0B4FC08BD00B591B05F4872
:1042F00002F046F85E4806905E480790002008905D
:104300000120099000200A9080200B9040000C9022
:1043100080000D9020200E9000020F900020109041
:1043200006A9524802F0CEF80121504802F0F5F8F3
:10433000002001908DF8080001208DF809004FF44D
:10434000602003900020049001208DF8140001A942
:1043500047484C3801F013FE4FF4404002F098FEFD
:1043600005230122042142484C3801F0A0FE01211E
:104370003F484C3801F03AFE01213D484C3801F0ED
:104380002AFE3B484C3801F048FE00BF38484C3804
:1043900001F048FE0028F9D135484C3801F04CFEB8
:1043A00000BF33484C3801F04CFE0028F9D1012100
:1043B0002F484C3801F04FFE11B000BD10B5FFF78B
:1043C0007FFFFFF792FF10BD2DE9F84F29480088C5
:1043D00006F0ACFA009006F095F80646264A274B00
:1043E00005F0A8FE04460D462548006806F08AF848
:1043F0000646244A244B05F09DFE804622462B4665
:1044000005F04EFD824605F019FD1D4908604FF08C
:104410008B411B48006806F015F9824606F072F8D9
:1044200006464FF06632194B05F084FE80460022A6
:104430004FF0804305F07EFE044605F0FFFC144972
:1044400008600846006806F05DF804460022114B3B
:1044500005F034FE03D201210F48417302E0002130
:104460000D484173BDE8F88F000801400800024084
:104470004C24014058000020FCA9F1D24D62603F5D
:104480005C000020560E2DB29DEFEF3F66660A409D
:104490006000002000000C40C400002003460621FC
:1044A0000622F7480188F7480288ABB1012B1BD1DF
:1044B0003AB94EF6EE60814201D1002070470120EA
:1044C000FCE739B94EF6EE60824201D10120F5E7F2
:1044D0000020F3E7AB20F1E709B90020EEE70AB9C5
:1044E0000120EBE7AB20E9E70020E7E770B5042601
:1044F00000240120FFF7D2FF0446AB2C06D1E04890
:1045000000EB8420E0490860AB2070BDDC4800EB84
:104510008420DD490860601CD949891E01EB802593
:104520000CE0D94800680068401C10B904263046E9
:10453000EBE7D5480068001DD3490860D248006801
:10454000A842EED38020E0E710B50424CC4802F066
:10455000A5F80446042C01D0204610BD0021C8480F
:1045600002F09FF90446042C01D02046F5E7C54827
:1045700002F094F804462046EFE72DE9F0410446A6
:104580000F4604250026DFF804830120FFF786FF8D
:104590000646AB2E01D1BDE8F081701CB849891EDA
:1045A00001EB802821E0B84800680068401CB8B9D9
:1045B0003946B548006802F074F90546042D01D06B
:1045C0002846E8E72146B0480068801C02F069F9F7
:1045D0000546AD480068001DAB4908602846DAE78B
:1045E000A9480068001DA8490860A7480068404520
:1045F000D9D38020CFE72DE9F04706460F460025A6
:1046000045F255584FF001099D4CA2460020FFF796
:1046100045FF0546AB2D01D1BDE8F087984800EB7A
:10462000852A99480068841E0AE0B4F80080B045E5
:1046300005D134F8020C38804FF0000904E0241F43
:104640000AF102008442F0D800BF4846E4E72DE9B1
:10465000F0474FF0060A062600250027A8464FF02F
:10466000FF398748B0F800A0864806885FEA0A004C
:1046700075D0A0F56E40EE3858B3A0F588501138CB
:1046800000286DD146B97E4802F008F80446042C93
:104690001ED02046BDE8F0874EF6EE60864210D16F
:1046A000774801F0FBFF0446042C01D02046F1E7D7
:1046B0000021744802F0F5F80446042C08D0204686
:1046C000E8E7FFF741FF0446042C01D02046E1E76C
:1046D000AEE07EBB002522E06948C0886C4931F815
:1046E0001510884201D10FFA85F94D4515D068495A
:1046F00031F815006749FFF77EFF8046B8F1010FDA
:104700000BD0634931F8150062490988FFF735FF7E
:104710000746042F01D03846BCE7681C85B2192D26
:10472000DADB0021564802F0BCF80446042C02D023
:104730002046AFE707E0534801F0B0FF0446042CE1
:104740001FD02046A6E74FF6FF70864212D14D4893
:1047500001F0A4FF0446042C03D020469AE711E0A0
:104760005EE00021464802F09CF80446042C08D084
:1047700020468FE7FFF7E8FE0446042C01D02046D0
:1047800088E755E036B9FFF7DFFE0446042C46D033
:1047900020467FE74FF6FF70864207D1394801F087
:1047A0007DFF0446042C3AD0204673E7002523E021
:1047B0003448801D0088364931F81510884201D1EF
:1047C0000FFA85F94D4515D0314931F815003149B9
:1047D000FFF711FF8046B8F1010F0BD02C4931F8DB
:1047E00015002C490988FFF7C8FE0746042F01D0A1
:1047F00038464FE7681C85B2192DD9DB00212148C6
:1048000002F04FF80446042C01D0204642E71C4831
:1048100001F044FF0446042C01D020463AE707E0AB
:10482000FFF792FE0446042C01D0204632E700BF79
:1048300000BF04202EE710B5FFF709FF0446FFF77D
:1048400055FE204610BD2DE9F84F07468946042540
:10485000DFF830A0AAF1010A094800904FF00008E3
:10486000002400264FF0000B0020FFF717FE8046C3
:10487000B8F1010F10D1DFF808A00248009016E04F
:10488000000001080004010868000020FF0701087B
:104890000EAF000864000020B8F1000F04D1DFF86B
:1048A000C4A03148009002E0AB20BDE8F88F4EF67E
:1048B000EE61504601F0F5FF0546042D01D0284673
:1048C000F3E7FFF713FE49463846FFF756FE064664
:1048D000042E01D03046E8E700241CE0234830F8DD
:1048E0001400B84215D0214931F814002049FFF7CF
:1048F00082FE8346BBF1010F0BD01C4931F8140036
:104900001B490988FFF739FE0646042E01D03046C0
:10491000CBE7601C84B2192CE0DB009801F0BEFEEE
:104920000546042D01D02846BFE70021504601F07E
:10493000B8FF0546042D01D02846B6E72846B4E75F
:1049400070B505460E46002431462846FFF715FE91
:104950000446802C04D131462846FFF774FF0446F4
:10496000204670BD00040108000001080EAF0008D9
:1049700064000020704708B50121082002F024FCE3
:104980004020ADF8000003208DF8020014208DF8BF
:1049900003006946E84802F05BF98020ADF80000AA
:1049A00003208DF8020014208DF803006946E248C8
:1049B00002F04EF908BD704700B501464020DE4ABE
:1049C000143210600846FFF7F6FF8020DA4A1432EE
:1049D00010600846FFF7EFFF4020D74A1032106002
:1049E0000846FFF7E8FF8020D34A103210600846DF
:1049F000FFF7E1FF00BD00B501464020CE4A14326A
:104A000010600846FFF7D7FF8020CB4A10321060B5
:104A10000846FFF7D0FF4020C74A10321060084612
:104A2000FFF7C9FFC4480830006800F0800040B1BB
:104A30004020C14A143210600846FFF7BCFF002036
:104A400000BD4020BC4A143210600846FFF7B3FF97
:104A50000120F5E710B5024608231DE04020B64CC2
:104A6000143420601046FFF7A6FF01F0800018B153
:104A70008020241F206003E08020AF4C143420608D
:104A80004806010E1046FFF796FF4020AA4C10344E
:104A900020601046FFF78FFF1800A3F10104E3B276
:104AA000DCD14020A44C1434206010BD00B5014678
:104AB0008020A14A10321060402010600846FFF7A5
:104AC0007AFF9D480830006808B9012000E0002006
:104AD00000F0800008B1002000BD8020964A14320A
:104AE00010600846FFF767FF93480830006800F041
:104AF000800008B10020EFE780208F4A1432106058
:104B00000846FFF758FF0120E6E7F0B506460F46D6
:104B100014461D463046FFF7C9FF08B90020F0BD16
:104B200039463046FFF796FF3046FFF764FF20B95D
:104B30003046FFF741FF0020F1E721463046FFF7FE
:104B400089FF3046FFF757FF29463046FFF782FFBF
:104B50003046FFF750FF3046FFF72EFF0120DEE71B
:104B600000B501464020744A143210600846FFF731
:104B700022FF8020704A103210600846FFF71BFFAA
:104B800040206D4A103210600846FFF714FF4020A5
:104B9000694A143210600846FFF70DFF00BD10B5DA
:104BA0000246082300218020634C1034206016E068
:104BB0004806010E4020604C143420601046FFF778
:104BC000FAFE4020241F20601046FFF7F4FE5A48EA
:104BD0000830006800F0800008B141F001011800C1
:104BE000A3F10104E3B2E3D14020534C143420601C
:104BF000084610BDF0B506460C4615463046FFF790
:104C000055FF08B90020F0BD21463046FFF722FFCE
:104C10003046FFF7F0FE20B93046FFF7CDFE00200A
:104C2000F1E729463046FFF715FF3046FFF7E3FE70
:104C30003046FFF73BFF601CC1B23046FFF70AFF6A
:104C40003046FFF7D8FE3046FFF7A9FF074630464B
:104C5000FFF786FF3046FFF7AFFE3846D3E700B5D3
:104C600001464020344A143210600846FFF7A3FE84
:104C70008020314A143210600846FFF79CFE402025
:104C80002D4A103210600846FFF795FE40202A4A50
:104C9000143210600846FFF78EFE00BD2DE9F04388
:104CA00081460E4617461C46DDF81C80B8F1010F00
:104CB00002DA0020BDE8F0834846FFF7F7FE08B9A6
:104CC0000020F7E731464846FFF7C4FE4846FFF7A5
:104CD00092FE20B94846FFF76FFE0020EAE739460A
:104CE0004846FFF7B7FE4846FFF785FE4846FFF700
:104CF000DDFE701CC1B24846FFF7ACFE4846FFF728
:104D00007AFE012509E04846FFF749FF04F8010B48
:104D10004846FFF7A4FF681CC5B24545F3DB48468B
:104D2000FFF73DFF04F8010B4846FFF719FF48461F
:104D3000FFF742FE0120BDE7000C014008B501214C
:104D4000102002F041FA4FF4C040ADF800001020EE
:104D50008DF8030003208DF802006946114801F028
:104D600077FF08BD10B504464FF480410D4802F0AE
:104D70001CF810BD10B504464FF40051094802F06C
:104D800014F810BD10B504464FF48041054802F0F8
:104D90000EF810BD10B504464FF40051014802F062
:104DA00006F810BD0010014010B504462046FFF77C
:104DB000E1FD0446A01C04F018FF841E04F1080065
:104DC00004F013FFA0F1080404F11C0004F0DCFE61
:104DD000A0F11C0404F1280004F0D6FEA0F1280480
:104DE00004F1340004F0D0FEA0F13404204610BDDC
:104DF00030B50346C822002007E000BF1400A2F12E
:104E00000105AAB2FAD1441CE0B28842F5DB30BDFC
:104E10002DE9F04107460D4616462A2E15D006DC30
:104E2000052E0CD00A2E0CD0142E16D10BE0622EBB
:104E30000DD0BC2E0DD0B6F5807F0ED10BE0062430
:104E40000DE005240BE0042409E0032407E002241C
:104E500005E0012403E0002401E0022400BF00BFBC
:104E600080236B22D0213846FFF74FFE05213846BC
:104E7000FFF7BEFF4FF47A7090FBF5F0401E00F094
:104E8000FF0843461922D0213846FFF73EFE032390
:104E90006B22D0213846FFF738FE02233722D0217B
:104EA0003846FFF732FE23461A22D0213846FFF754
:104EB0002CFE18231B22D0213846FFF726FE102394
:104EC0001C22D0213846FFF720FEBDE8F0812DE9F5
:104ED000F0410446207800286AD0EA48007800F0C3
:104EE000010048B9E74803F04DFE28B1E64804F058
:104EF0004BFEE448AFF30080E448008880B900230B
:104F00001A461946A01C04F075FE00231A461946DD
:104F1000DD4804F03EFE0120DC490880BDE8F08158
:104F200004F11C01D84804F04CFED8480088C82879
:104F300039D1D648008805F0F9FC0646D249086800
:104F4000314605F07FFB054605F072FC00B260803B
:104F5000CE48008805F0EAFC0646CB494868314651
:104F600005F070FB054605F063FC01B2A180C7485F
:104F7000008805F0DBFC0746C3498868394605F020
:104F800061FB06464FF08B4105F0D8FE054605F063
:104F90004FFC01B2E1800020BC4908802070BC4871
:104FA000FEF745F9BAE7B9480088401CB7490880C0
:104FB00000BFB3E72DE9FC4104463C22D021204646
:104FC000FFF718FEA0733B22D0212046FFF712FE08
:104FD000E073A17BE07B41EA00206188401A00B2C7
:104FE000ADF800003E22D0212046FFF703FE2074DA
:104FF0003D22D0212046FFF7FDFD6074217C607CBE
:1050000041EA0021A088081A00B2ADF8020040224F
:10501000D0212046FFF7EEFDA0743F22D02120468C
:10502000FFF7E8FDE074A17CE07C41EA0021E08824
:10503000081A00B2ADF80400BDF9040005F05EFCEA
:105040000546BDF9020005F059FC0646BDF9000011
:1050500005F054FC07462B463246394604F11C0045
:1050600004F097FD2046FFF732FFBDE8FC8170B5E4
:105070000446607800286ED08648007800F0010071
:1050800048B9844803F07EFD28B1834804F07CFDD4
:105090008048AFF300808148008880B900231A4619
:1050A000194604F1080004F0A5FD00231A4619462C
:1050B000794804F06EFD01207849088070BD04F144
:1050C0002801754804F07DFD74480088C8283DD14A
:1050D0007248008805F02AFC06466F490868314688
:1050E00005F0B0FA054605F0A3FB00B220816B483D
:1050F000008805F01BFC064667494868314605F004
:10510000A1FA054605F094FB01B26181634800886D
:1051100005F00CFC064660498868314605F092FAB5
:10512000054605F085FB01B2A18100205B4908809E
:1051300060705B48007A28B901215948417201200A
:10514000574908725248FEF78AF8B7E75348008873
:10515000401C5249088000BFB0E72DE9FC410446DD
:105160004422D0212046FFF745FD20754322D0215F
:105170002046FFF73FFD6075217D607D41EA0020FC
:105180002189401A00B2ADF800004622D021204605
:10519000FFF730FDA0754522D0212046FFF72AFDFC
:1051A000E075A17DE07D41EA00216089081A00B226
:1051B000ADF802004822D0212046FFF71BFD2076E3
:1051C0004722D0212046FFF715FD6076217E607EC4
:1051D00041EA0021A089081A00B2ADF80400BDF927
:1051E000040005F08BFB0546BDF9020005F086FBC7
:1051F0000646BDF9000005F081FB07462B46324606
:10520000394604F1280004F0C4FC2046FFF72FFFC4
:10521000BDE8FC8110B5D1E90834CA6980E81C00FA
:1052200010BD10B5D1E90B348A6A80E81C0010BDAE
:105230000FB470B505460C461A49069805F0BEFB3A
:105240000646FEF7C8FB60631649079805F0B6FBF3
:105250000646FEF7C0FBA0631249089805F0AEFBB6
:105260000646FEF7B8FBE063D4E90E12606B85E8F2
:10527000070070BC5DF814FB10B50B48FFF794FDF8
:1052800010BD0000700000206C060020740000209B
:105290004A00002078000020780600207C000020D2
:1052A000C40000208DC1793D2C06002010B50446B5
:1052B00001235822EE212046FFF727FC10BD7CB5C4
:1052C0000546002001900026002418E002200090EE
:1052D000A02000EB4400C2B201ABEE212846FFF74C
:1052E000DDFC3044C6B29DF805009DF8041040EA8C
:1052F000012105F1100020F81410601CC4B2082C24
:10530000E4DB082E01D101207CBD0020FCE710B5B4
:10531000044601231E22EE212046FFF7F6FB10BDB6
:1053200010B504460A20FEF766FF2046FFF7EFFFA0
:105330000320FEF760FF2046FFF7C1FF2046FFF77E
:10534000B5FF10BD10B5044601234822EE212046CA
:10535000FFF7DBFB10BD38B50446032004F1200342
:105360000022EE2100902046FFF798FC38BD2DE981
:10537000F04F8BB004464FF00008C14694F820006F
:1053800001042120005D41EA00202221095D08433B
:10539000A06094F8230001042420005D41EA00206D
:1053A0002521095D0843E060608BA168A1EB002521
:1053B000A08A00040022218B4FEAE57CA1FB05BEF8
:1053C00002FB05E301FB0C334FEADB1141EA4361C9
:1053D000401842EBE312CDE90802608A4FEAC03080
:1053E0004246E18A4FEAE57CA1FB05BE02FB05E3EC
:1053F00001FB0C334FEA1B2141EA0361401842EBE9
:105400002322CDE90602A08B42464FEAE573A0FBBA
:10541000051C02FB05C200FB03204FEA402242EAC2
:10542000D1504FF4FA614718B7F5FA6F19DAA7F5BA
:10543000FA66764306EB86004FEA600806EB8600C4
:105440004FEAA009544887420BDA07F2DC5676434C
:10545000072000FB068806EB460000EBC60009EBC0
:105460006009DDE90801B0EB080061EBE871CDE906
:105470000801DDE90601B0EB090061EBE971CDE956
:1054800006014FF00003E168DDE9062CA1FB020BE9
:1054900003FB02B201FB0C224FEA505141EAC22C3D
:1054A0004FEA6251DDE90802BCEB000061EB02014A
:1054B000C00B40EA414A504605F020FA37490190B6
:1054C00005F0C0F88346364802905846029903F02A
:1054D00097FE4FF07E51039005F09EFB31490490FA
:1054E00005F06CFA059005F0A3F98246606818B1E2
:1054F0006068AAEB000020602B480078B0B12A4811
:105500000078401E2849087008460078C82804DA48
:10551000264800685044254908602348007828B987
:1055200022480068C72190FBF1F060600BB0BDE835
:10553000F08F38B50446032004F123030022EE2146
:1055400000902046FFF7AAFB38BD10B50446184866
:10555000006860B12046FFF7ECFF2046FFF7A6FE8B
:105560002046FFF704FF00201149086008E02046AC
:10557000FFF7F1FE2046FFF7E5FE01200C49086029
:1055800010BD01460868704710B50A4C2046FFF769
:10559000F1F9044600BF10BD24FAFFFF80E6C547BD
:1055A000B1DC423ED048874A8800002084000020B9
:1055B00080000020840600202DE9F04105460E46BB
:1055C0001446284600F000FB3146284600F0CAFA8F
:1055D00007462146284600F0C5FA284600F0ECFAB6
:1055E0003846BDE8F0812DE9F04707468846154664
:1055F0001E46384600F0E8FA4146384600F0B2FA56
:105600008146002405E0295D384600F0ABFA601CB5
:10561000C4B2B442F7DB384600F0CEFA4846BDE8E3
:10562000F08770B505460C461646284600F0BCFAD1
:1056300005239C4A2A212846FFF7D5FF05239A4ACD
:1056400030212846FFF7CFFF012221212846FFF70E
:10565000B3FF012222212846FFF7AEFF1A222421A0
:105660002846FFF7A9FF324625212846FFF7A4FF69
:105670000F2226212846FFF79FFF012C0AD1FF2287
:1056800031212846FFF798FF0F2220212846FFF7F7
:1056900093FF51E0022C0AD1FF2231212846FFF767
:1056A0008BFF0E2220212846FFF786FF44E0032CC3
:1056B00021D1FF22E1212846FFF77EFFFF22E221D0
:1056C0002846FFF779FF0F2220212846FFF774FFB5
:1056D0005021284600F046FA7321284600F042FA8D
:1056E00001223C212846FFF767FF06223D2128467C
:1056F000FFF762FF20E00E2220212846FFF75CFF23
:10570000FF22E1212846FFF757FFFF22E22128462A
:10571000FFF752FF5021284600F024FA7321284653
:1057200000F020FA01223C212846FFF745FF06221F
:105730003D212846FFF740FF284600F02DFA70BDB6
:1057400070B506460C461546304600F02DFA052386
:10575000554A2A213046FFF746FF2B462246A02114
:105760003046FFF740FF304600F016FA70BD70B5C6
:1057700006460C461546304600F016FA2B462246E1
:10578000A8213046FFF72FFF304600F005FA70BD24
:105790002DE9F0470746884615461E46384600F074
:1057A00013FA4146384600F0DDF98146002406E050
:1057B0000021384600F0D6F92855601CC4B2B44226
:1057C000F6DB384600F0F8F94846BDE8F0877CB5CE
:1057D00005460523344A30212846FFF704FF0523F8
:1057E0006A4610212846FFF7D3FF002408E01DF881
:1057F00004002D49095D884200D003E0601CC4B25A
:10580000052CF4DB00BF052C01D101207CBD00205C
:10581000FCE770B504460D46204600F0D5F9294650
:10582000204600F09FF90021204600F09BF9064633
:10583000204600F0C1F9304670BD70B5054607211D
:105840002846FFF7E6FF044604F04000C0B160219F
:105850002846FFF7DEFF0646212E0BDA33462A469E
:1058600061212846FFF794FF324629460F48FAF790
:1058700052FD04E0FF22E2212846FFF79DFE00BF13
:1058800004F0100038B104F0010020B1FF22E12142
:105890002846FFF791FE224627212846FFF78CFE77
:1058A00070BD00008E00002089000020D400002080
:1058B00030B589B0054601210C2001F085FC0F2090
:1058C000ADF8040003208DF8060018208DF80700BD
:1058D00001A96D4801F0BCF90320ADF8040001A94D
:1058E0006A4801F0B5F900BF0121084601F079FCD2
:1058F0004FF47A70684366490968B1FBF0F0401EC6
:1059000084B240F2E730ADF81C00ADF8184000203A
:10591000ADF81E00ADF81A0006A94FF0804001F066
:1059200011FF6020ADF808000120ADF80A0000204A
:10593000ADF80E00ADF8100002A94FF0804001F064
:105940003EFF0821C80602F089FB02A94FF0804003
:1059500001F077FF0821C80602F089FB02A94FF089
:10596000804001F0BBFF0821C80602F08DFB02A9B0
:105970004FF0804001F0FDFF0821C80602F08DFBCA
:105980000121880702F03AFB0121880702F036FA6C
:105990000121022001F025FC3D4800683D49B0FB93
:1059A000F1F0401E84B240F2E730ADF81C00ADF8D3
:1059B00018400020ADF81E00ADF81A0006A93648C0
:1059C00001F0C0FE6020ADF808000120ADF80A002B
:1059D0000020ADF80E00ADF8100002A92E4801F02D
:1059E0007DFF08212C4802F04FFB02A92A4801F054
:1059F000C0FF0821284802F050FB0121264802F090
:105A0000FDFA0121244802F0F9F909B030BD02463F
:105A1000002014E031F91030B3F57A7F04DA4FF446
:105A20007A7321F8103008E031F91030B3F5FA6FCD
:105A300003DD4FF4FA6321F81030431CD8B2062876
:105A4000E8DB0888A0F57A704FF080439886488894
:105A5000A0F57A70104B3C3318808888A0F57A70D6
:105A60004FF080439887C888A0F57A700A4B40337E
:105A700018800889A0F57A701B0618874889A0F558
:105A80007A70064B1880704700080140000C0140F6
:105A9000B000002000366E010004004040000040CD
:105AA00000B587B00121082001F08EFB0121042000
:105AB00001F08AFB0121880301F093FB4FF4604061
:105AC000ADF8040001208DF8060018208DF80700BD
:105AD00001A9414801F0BCF84FF48070ADF8040012
